{
  "contractName": "MyToken",
  "abi": [
    {
      "inputs": [],
      "stateMutability": "nonpayable",
      "type": "constructor"
    },
    {
      "anonymous": false,
      "inputs": [
        {
          "indexed": false,
          "internalType": "address",
          "name": "tokenAdmin",
          "type": "address"
        },
        {
          "indexed": false,
          "internalType": "uint256",
          "name": "tokenID",
          "type": "uint256"
        },
        {
          "indexed": false,
          "internalType": "uint256",
          "name": "amount",
          "type": "uint256"
        },
        {
          "indexed": false,
          "internalType": "uint256",
          "name": "rate",
          "type": "uint256"
        }
      ],
      "name": "AddNewToken",
      "type": "event"
    },
    {
      "anonymous": false,
      "inputs": [
        {
          "indexed": true,
          "internalType": "address",
          "name": "account",
          "type": "address"
        },
        {
          "indexed": true,
          "internalType": "address",
          "name": "operator",
          "type": "address"
        },
        {
          "indexed": false,
          "internalType": "bool",
          "name": "approved",
          "type": "bool"
        }
      ],
      "name": "ApprovalForAll",
      "type": "event"
    },
    {
      "anonymous": false,
      "inputs": [
        {
          "indexed": false,
          "internalType": "address",
          "name": "tokenAdmin",
          "type": "address"
        },
        {
          "indexed": false,
          "internalType": "address",
          "name": "buyer",
          "type": "address"
        },
        {
          "indexed": false,
          "internalType": "uint256",
          "name": "tokenID",
          "type": "uint256"
        },
        {
          "indexed": false,
          "internalType": "uint256",
          "name": "amount",
          "type": "uint256"
        },
        {
          "indexed": false,
          "internalType": "bytes",
          "name": "data",
          "type": "bytes"
        }
      ],
      "name": "BuyToken",
      "type": "event"
    },
    {
      "anonymous": false,
      "inputs": [
        {
          "indexed": false,
          "internalType": "address",
          "name": "tokenAdmin",
          "type": "address"
        },
        {
          "indexed": false,
          "internalType": "uint256",
          "name": "tokenID",
          "type": "uint256"
        },
        {
          "components": [
            {
              "internalType": "string",
              "name": "question",
              "type": "string"
            },
            {
              "internalType": "string[]",
              "name": "options",
              "type": "string[]"
            },
            {
              "internalType": "uint256[]",
              "name": "votes",
              "type": "uint256[]"
            }
          ],
          "indexed": false,
          "internalType": "struct MyToken.Poll[]",
          "name": "polls",
          "type": "tuple[]"
        }
      ],
      "name": "CreatePoll",
      "type": "event"
    },
    {
      "anonymous": false,
      "inputs": [
        {
          "indexed": false,
          "internalType": "address",
          "name": "tokenAdmin",
          "type": "address"
        },
        {
          "indexed": false,
          "internalType": "address",
          "name": "holder",
          "type": "address"
        },
        {
          "indexed": false,
          "internalType": "uint256",
          "name": "tokenID",
          "type": "uint256"
        },
        {
          "indexed": false,
          "internalType": "bool",
          "name": "success",
          "type": "bool"
        },
        {
          "indexed": false,
          "internalType": "bytes",
          "name": "data",
          "type": "bytes"
        },
        {
          "indexed": false,
          "internalType": "uint256",
          "name": "amount",
          "type": "uint256"
        }
      ],
      "name": "Disburse",
      "type": "event"
    },
    {
      "anonymous": false,
      "inputs": [
        {
          "indexed": true,
          "internalType": "bytes32",
          "name": "role",
          "type": "bytes32"
        },
        {
          "indexed": true,
          "internalType": "bytes32",
          "name": "previousAdminRole",
          "type": "bytes32"
        },
        {
          "indexed": true,
          "internalType": "bytes32",
          "name": "newAdminRole",
          "type": "bytes32"
        }
      ],
      "name": "RoleAdminChanged",
      "type": "event"
    },
    {
      "anonymous": false,
      "inputs": [
        {
          "indexed": true,
          "internalType": "bytes32",
          "name": "role",
          "type": "bytes32"
        },
        {
          "indexed": true,
          "internalType": "address",
          "name": "account",
          "type": "address"
        },
        {
          "indexed": true,
          "internalType": "address",
          "name": "sender",
          "type": "address"
        }
      ],
      "name": "RoleGranted",
      "type": "event"
    },
    {
      "anonymous": false,
      "inputs": [
        {
          "indexed": true,
          "internalType": "bytes32",
          "name": "role",
          "type": "bytes32"
        },
        {
          "indexed": true,
          "internalType": "address",
          "name": "account",
          "type": "address"
        },
        {
          "indexed": true,
          "internalType": "address",
          "name": "sender",
          "type": "address"
        }
      ],
      "name": "RoleRevoked",
      "type": "event"
    },
    {
      "anonymous": false,
      "inputs": [
        {
          "indexed": true,
          "internalType": "address",
          "name": "operator",
          "type": "address"
        },
        {
          "indexed": true,
          "internalType": "address",
          "name": "from",
          "type": "address"
        },
        {
          "indexed": true,
          "internalType": "address",
          "name": "to",
          "type": "address"
        },
        {
          "indexed": false,
          "internalType": "uint256[]",
          "name": "ids",
          "type": "uint256[]"
        },
        {
          "indexed": false,
          "internalType": "uint256[]",
          "name": "values",
          "type": "uint256[]"
        }
      ],
      "name": "TransferBatch",
      "type": "event"
    },
    {
      "anonymous": false,
      "inputs": [
        {
          "indexed": true,
          "internalType": "address",
          "name": "operator",
          "type": "address"
        },
        {
          "indexed": true,
          "internalType": "address",
          "name": "from",
          "type": "address"
        },
        {
          "indexed": true,
          "internalType": "address",
          "name": "to",
          "type": "address"
        },
        {
          "indexed": false,
          "internalType": "uint256",
          "name": "id",
          "type": "uint256"
        },
        {
          "indexed": false,
          "internalType": "uint256",
          "name": "value",
          "type": "uint256"
        }
      ],
      "name": "TransferSingle",
      "type": "event"
    },
    {
      "anonymous": false,
      "inputs": [
        {
          "indexed": false,
          "internalType": "string",
          "name": "value",
          "type": "string"
        },
        {
          "indexed": true,
          "internalType": "uint256",
          "name": "id",
          "type": "uint256"
        }
      ],
      "name": "URI",
      "type": "event"
    },
    {
      "anonymous": false,
      "inputs": [
        {
          "indexed": false,
          "internalType": "address",
          "name": "Voter",
          "type": "address"
        },
        {
          "indexed": false,
          "internalType": "uint256",
          "name": "tokenID",
          "type": "uint256"
        },
        {
          "indexed": false,
          "internalType": "uint256",
          "name": "pollID",
          "type": "uint256"
        },
        {
          "indexed": false,
          "internalType": "uint256",
          "name": "weight",
          "type": "uint256"
        }
      ],
      "name": "Vote",
      "type": "event"
    },
    {
      "inputs": [],
      "name": "DEFAULT_ADMIN_ROLE",
      "outputs": [
        {
          "internalType": "bytes32",
          "name": "",
          "type": "bytes32"
        }
      ],
      "stateMutability": "view",
      "type": "function",
      "constant": true
    },
    {
      "inputs": [],
      "name": "URI_SETTER_ROLE",
      "outputs": [
        {
          "internalType": "bytes32",
          "name": "",
          "type": "bytes32"
        }
      ],
      "stateMutability": "view",
      "type": "function",
      "constant": true
    },
    {
      "inputs": [
        {
          "internalType": "address",
          "name": "account",
          "type": "address"
        },
        {
          "internalType": "uint256",
          "name": "id",
          "type": "uint256"
        }
      ],
      "name": "balanceOf",
      "outputs": [
        {
          "internalType": "uint256",
          "name": "",
          "type": "uint256"
        }
      ],
      "stateMutability": "view",
      "type": "function",
      "constant": true
    },
    {
      "inputs": [
        {
          "internalType": "address[]",
          "name": "accounts",
          "type": "address[]"
        },
        {
          "internalType": "uint256[]",
          "name": "ids",
          "type": "uint256[]"
        }
      ],
      "name": "balanceOfBatch",
      "outputs": [
        {
          "internalType": "uint256[]",
          "name": "",
          "type": "uint256[]"
        }
      ],
      "stateMutability": "view",
      "type": "function",
      "constant": true
    },
    {
      "inputs": [
        {
          "internalType": "uint256",
          "name": "id",
          "type": "uint256"
        }
      ],
      "name": "exists",
      "outputs": [
        {
          "internalType": "bool",
          "name": "",
          "type": "bool"
        }
      ],
      "stateMutability": "view",
      "type": "function",
      "constant": true
    },
    {
      "inputs": [
        {
          "internalType": "bytes32",
          "name": "role",
          "type": "bytes32"
        }
      ],
      "name": "getRoleAdmin",
      "outputs": [
        {
          "internalType": "bytes32",
          "name": "",
          "type": "bytes32"
        }
      ],
      "stateMutability": "view",
      "type": "function",
      "constant": true
    },
    {
      "inputs": [
        {
          "internalType": "bytes32",
          "name": "role",
          "type": "bytes32"
        },
        {
          "internalType": "address",
          "name": "account",
          "type": "address"
        }
      ],
      "name": "grantRole",
      "outputs": [],
      "stateMutability": "nonpayable",
      "type": "function"
    },
    {
      "inputs": [
        {
          "internalType": "bytes32",
          "name": "role",
          "type": "bytes32"
        },
        {
          "internalType": "address",
          "name": "account",
          "type": "address"
        }
      ],
      "name": "hasRole",
      "outputs": [
        {
          "internalType": "bool",
          "name": "",
          "type": "bool"
        }
      ],
      "stateMutability": "view",
      "type": "function",
      "constant": true
    },
    {
      "inputs": [
        {
          "internalType": "address",
          "name": "account",
          "type": "address"
        },
        {
          "internalType": "address",
          "name": "operator",
          "type": "address"
        }
      ],
      "name": "isApprovedForAll",
      "outputs": [
        {
          "internalType": "bool",
          "name": "",
          "type": "bool"
        }
      ],
      "stateMutability": "view",
      "type": "function",
      "constant": true
    },
    {
      "inputs": [
        {
          "internalType": "bytes32",
          "name": "role",
          "type": "bytes32"
        },
        {
          "internalType": "address",
          "name": "account",
          "type": "address"
        }
      ],
      "name": "renounceRole",
      "outputs": [],
      "stateMutability": "nonpayable",
      "type": "function"
    },
    {
      "inputs": [
        {
          "internalType": "bytes32",
          "name": "role",
          "type": "bytes32"
        },
        {
          "internalType": "address",
          "name": "account",
          "type": "address"
        }
      ],
      "name": "revokeRole",
      "outputs": [],
      "stateMutability": "nonpayable",
      "type": "function"
    },
    {
      "inputs": [
        {
          "internalType": "address",
          "name": "from",
          "type": "address"
        },
        {
          "internalType": "address",
          "name": "to",
          "type": "address"
        },
        {
          "internalType": "uint256[]",
          "name": "ids",
          "type": "uint256[]"
        },
        {
          "internalType": "uint256[]",
          "name": "amounts",
          "type": "uint256[]"
        },
        {
          "internalType": "bytes",
          "name": "data",
          "type": "bytes"
        }
      ],
      "name": "safeBatchTransferFrom",
      "outputs": [],
      "stateMutability": "nonpayable",
      "type": "function"
    },
    {
      "inputs": [
        {
          "internalType": "address",
          "name": "from",
          "type": "address"
        },
        {
          "internalType": "address",
          "name": "to",
          "type": "address"
        },
        {
          "internalType": "uint256",
          "name": "id",
          "type": "uint256"
        },
        {
          "internalType": "uint256",
          "name": "amount",
          "type": "uint256"
        },
        {
          "internalType": "bytes",
          "name": "data",
          "type": "bytes"
        }
      ],
      "name": "safeTransferFrom",
      "outputs": [],
      "stateMutability": "nonpayable",
      "type": "function"
    },
    {
      "inputs": [
        {
          "internalType": "address",
          "name": "operator",
          "type": "address"
        },
        {
          "internalType": "bool",
          "name": "approved",
          "type": "bool"
        }
      ],
      "name": "setApprovalForAll",
      "outputs": [],
      "stateMutability": "nonpayable",
      "type": "function"
    },
    {
      "inputs": [
        {
          "internalType": "uint256",
          "name": "id",
          "type": "uint256"
        }
      ],
      "name": "totalSupply",
      "outputs": [
        {
          "internalType": "uint256",
          "name": "",
          "type": "uint256"
        }
      ],
      "stateMutability": "view",
      "type": "function",
      "constant": true
    },
    {
      "inputs": [
        {
          "internalType": "uint256",
          "name": "",
          "type": "uint256"
        }
      ],
      "name": "uri",
      "outputs": [
        {
          "internalType": "string",
          "name": "",
          "type": "string"
        }
      ],
      "stateMutability": "view",
      "type": "function",
      "constant": true
    },
    {
      "inputs": [
        {
          "internalType": "string",
          "name": "newuri",
          "type": "string"
        }
      ],
      "name": "setURI",
      "outputs": [],
      "stateMutability": "nonpayable",
      "type": "function"
    },
    {
      "inputs": [
        {
          "internalType": "address payable",
          "name": "tokenAdmin",
          "type": "address"
        },
        {
          "internalType": "uint256",
          "name": "amount",
          "type": "uint256"
        },
        {
          "internalType": "uint256",
          "name": "rate",
          "type": "uint256"
        }
      ],
      "name": "addNewToken",
      "outputs": [],
      "stateMutability": "nonpayable",
      "type": "function"
    },
    {
      "inputs": [
        {
          "internalType": "uint256",
          "name": "tokenID",
          "type": "uint256"
        }
      ],
      "name": "buyToken",
      "outputs": [],
      "stateMutability": "payable",
      "type": "function",
      "payable": true
    },
    {
      "inputs": [
        {
          "internalType": "uint256",
          "name": "tokenID",
          "type": "uint256"
        }
      ],
      "name": "disburse",
      "outputs": [],
      "stateMutability": "payable",
      "type": "function",
      "payable": true
    },
    {
      "inputs": [
        {
          "internalType": "uint256",
          "name": "tokenID",
          "type": "uint256"
        },
        {
          "internalType": "string",
          "name": "question",
          "type": "string"
        },
        {
          "internalType": "string[]",
          "name": "options",
          "type": "string[]"
        }
      ],
      "name": "createPoll",
      "outputs": [],
      "stateMutability": "nonpayable",
      "type": "function"
    },
    {
      "inputs": [
        {
          "internalType": "uint256",
          "name": "tokenID",
          "type": "uint256"
        }
      ],
      "name": "getPolls",
      "outputs": [
        {
          "components": [
            {
              "internalType": "string",
              "name": "question",
              "type": "string"
            },
            {
              "internalType": "string[]",
              "name": "options",
              "type": "string[]"
            },
            {
              "internalType": "uint256[]",
              "name": "votes",
              "type": "uint256[]"
            }
          ],
          "internalType": "struct MyToken.Poll[]",
          "name": "",
          "type": "tuple[]"
        },
        {
          "internalType": "uint256[]",
          "name": "",
          "type": "uint256[]"
        },
        {
          "internalType": "uint256[]",
          "name": "",
          "type": "uint256[]"
        }
      ],
      "stateMutability": "view",
      "type": "function",
      "constant": true
    },
    {
      "inputs": [
        {
          "internalType": "uint256",
          "name": "tokenID",
          "type": "uint256"
        },
        {
          "internalType": "uint256",
          "name": "pollID",
          "type": "uint256"
        },
        {
          "internalType": "uint256",
          "name": "option",
          "type": "uint256"
        }
      ],
      "name": "vote",
      "outputs": [],
      "stateMutability": "nonpayable",
      "type": "function"
    },
    {
      "inputs": [
        {
          "internalType": "bytes4",
          "name": "interfaceId",
          "type": "bytes4"
        }
      ],
      "name": "supportsInterface",
      "outputs": [
        {
          "internalType": "bool",
          "name": "",
          "type": "bool"
        }
      ],
      "stateMutability": "view",
      "type": "function",
      "constant": true
    }
  ],
  "bytecode": "0x608060405260006005553480156200001657600080fd5b506040518060200160405280600081525062000038816200008660201b60201c565b506200004e6000801b33620000a260201b60201c565b620000807f7804d923f43a17d325d77e781528e0793b2edd9890ab45fc64efd7b4b427744c33620000a260201b60201c565b6200031c565b80600290805190602001906200009e92919062000207565b5050565b620000b482826200019460201b60201c565b620001905760016003600084815260200190815260200160002060000160008373ffffffffffffffffffffffffffffffffffffffff1673ffffffffffffffffffffffffffffffffffffffff16815260200190815260200160002060006101000a81548160ff02191690831515021790555062000135620001ff60201b60201c565b73ffffffffffffffffffffffffffffffffffffffff168173ffffffffffffffffffffffffffffffffffffffff16837f2f8788117e7eff1d82e926ec794901d17c78024a50270940304540a733656f0d60405160405180910390a45b5050565b60006003600084815260200190815260200160002060000160008373ffffffffffffffffffffffffffffffffffffffff1673ffffffffffffffffffffffffffffffffffffffff16815260200190815260200160002060009054906101000a900460ff16905092915050565b600033905090565b8280546200021590620002e6565b90600052602060002090601f01602090048101928262000239576000855562000285565b82601f106200025457805160ff191683800117855562000285565b8280016001018555821562000285579182015b828111156200028457825182559160200191906001019062000267565b5b50905062000294919062000298565b5090565b5b80821115620002b357600081600090555060010162000299565b5090565b7f4e487b7100000000000000000000000000000000000000000000000000000000600052602260045260246000fd5b60006002820490506001821680620002ff57607f821691505b60208210811415620003165762000315620002b7565b5b50919050565b615778806200032c6000396000f3fe60806040526004361061014a5760003560e01c8063600a65df116100b6578063bd77ac2c1161006f578063bd77ac2c146104b4578063bd85b039146104d0578063ce2dee051461050d578063d547741f1461054c578063e985e9c514610575578063f242432a146105b25761014a565b8063600a65df146103a65780637f345710146103cf5780638a6655d6146103fa57806391d1485414610423578063a217fddf14610460578063a22cb4651461048b5761014a565b80632d296bf1116101085780632d296bf1146102955780632eb2c2d6146102b15780632f2ff15d146102da57806336568abe146103035780634e1273f41461032c5780634f558e79146103695761014a565b8062fdd58e1461014f57806301ffc9a71461018c57806302fe5305146101c95780630c9ef9a2146101f25780630e89341c1461021b578063248a9ca314610258575b600080fd5b34801561015b57600080fd5b50610176600480360381019061017191906133b7565b6105db565b6040516101839190613406565b60405180910390f35b34801561019857600080fd5b506101b360048036038101906101ae9190613479565b6106a4565b6040516101c091906134c1565b60405180910390f35b3480156101d557600080fd5b506101f060048036038101906101eb9190613622565b6106b6565b005b3480156101fe57600080fd5b5061021960048036038101906102149190613751565b6106f5565b005b34801561022757600080fd5b50610242600480360381019061023d91906137dc565b61093c565b60405161024f9190613891565b60405180910390f35b34801561026457600080fd5b5061027f600480360381019061027a91906138e9565b6109d0565b60405161028c9190613925565b60405180910390f35b6102af60048036038101906102aa91906137dc565b6109f0565b005b3480156102bd57600080fd5b506102d860048036038101906102d39190613aa4565b610cab565b005b3480156102e657600080fd5b5061030160048036038101906102fc9190613b73565b610d4c565b005b34801561030f57600080fd5b5061032a60048036038101906103259190613b73565b610d75565b005b34801561033857600080fd5b50610353600480360381019061034e9190613c76565b610df8565b6040516103609190613dac565b60405180910390f35b34801561037557600080fd5b50610390600480360381019061038b91906137dc565b610f11565b60405161039d91906134c1565b60405180910390f35b3480156103b257600080fd5b506103cd60048036038101906103c89190613e0c565b610f25565b005b3480156103db57600080fd5b506103e461105f565b6040516103f19190613925565b60405180910390f35b34801561040657600080fd5b50610421600480360381019061041c9190613e5f565b611083565b005b34801561042f57600080fd5b5061044a60048036038101906104459190613b73565b61126a565b60405161045791906134c1565b60405180910390f35b34801561046c57600080fd5b506104756112d5565b6040516104829190613925565b60405180910390f35b34801561049757600080fd5b506104b260048036038101906104ad9190613ede565b6112dc565b005b6104ce60048036038101906104c991906137dc565b6112f2565b005b3480156104dc57600080fd5b506104f760048036038101906104f291906137dc565b6115ab565b6040516105049190613406565b60405180910390f35b34801561051957600080fd5b50610534600480360381019061052f91906137dc565b6115c8565b604051610543939291906141b9565b60405180910390f35b34801561055857600080fd5b50610573600480360381019061056e9190613b73565b6119fe565b005b34801561058157600080fd5b5061059c60048036038101906105979190614205565b611a27565b6040516105a991906134c1565b60405180910390f35b3480156105be57600080fd5b506105d960048036038101906105d49190614245565b611abb565b005b60008073ffffffffffffffffffffffffffffffffffffffff168373ffffffffffffffffffffffffffffffffffffffff16141561064c576040517f08c379a00000000000000000000000000000000000000000000000000000000081526004016106439061434e565b60405180910390fd5b60008083815260200190815260200160002060008473ffffffffffffffffffffffffffffffffffffffff1673ffffffffffffffffffffffffffffffffffffffff16815260200190815260200160002054905092915050565b60006106af82611b5c565b9050919050565b7f7804d923f43a17d325d77e781528e0793b2edd9890ab45fc64efd7b4b427744c6106e8816106e3611bd6565b611bde565b6106f182611c7b565b5050565b823373ffffffffffffffffffffffffffffffffffffffff16600682815481106107215761072061436e565b5b906000526020600020906002020160000160009054906101000a900473ffffffffffffffffffffffffffffffffffffffff1673ffffffffffffffffffffffffffffffffffffffff16146107a9576040517f08c379a00000000000000000000000000000000000000000000000000000000081526004016107a0906143e9565b60405180910390fd5b6000825167ffffffffffffffff8111156107c6576107c56134f7565b5b6040519080825280602002602001820160405280156107f45781602001602082028036833780820191505090505b50905060005b83518110156108375760008282815181106108185761081761436e565b5b602002602001018181525050808061082f90614438565b9150506107fa565b5060096000868152602001908152602001600020604051806060016040528086815260200185815260200183815250908060018154018082558091505060019003906000526020600020906003020160009091909190915060008201518160000190805190602001906108ab92919061315b565b5060208201518160010190805190602001906108c89291906131e1565b5060408201518160020190805190602001906108e5929190613241565b5050507f37d80bfa4cabc29501fdb25be0eb46ef12f14a245dcd8ac773935e6112406a4233866009600089815260200190815260200160002060405161092d93929190614823565b60405180910390a15050505050565b60606002805461094b906144df565b80601f0160208091040260200160405190810160405280929190818152602001828054610977906144df565b80156109c45780601f10610999576101008083540402835291602001916109c4565b820191906000526020600020905b8154815290600101906020018083116109a757829003601f168201915b50505050509050919050565b600060036000838152602001908152602001600020600101549050919050565b80600073ffffffffffffffffffffffffffffffffffffffff1660068281548110610a1d57610a1c61436e565b5b906000526020600020906002020160000160009054906101000a900473ffffffffffffffffffffffffffffffffffffffff1673ffffffffffffffffffffffffffffffffffffffff161415610aa6576040517f08c379a0000000000000000000000000000000000000000000000000000000008152600401610a9d906148ad565b60405180910390fd5b60008060068481548110610abd57610abc61436e565b5b906000526020600020906002020160000160009054906101000a900473ffffffffffffffffffffffffffffffffffffffff1673ffffffffffffffffffffffffffffffffffffffff1634604051610b12906148fe565b60006040518083038185875af1925050503d8060008114610b4f576040519150601f19603f3d011682016040523d82523d6000602084013e610b54565b606091505b509150915081610b99576040517f08c379a0000000000000000000000000000000000000000000000000000000008152600401610b909061495f565b60405180910390fd5b600060068581548110610baf57610bae61436e565b5b90600052602060002090600202016001015434610bcc91906149ae565b9050610c2060068681548110610be557610be461436e565b5b906000526020600020906002020160000160009054906101000a900473ffffffffffffffffffffffffffffffffffffffff1633878486611c95565b7f3138022358a8810b94b406356f325ea086dad47c99cf2a60890c8a321aca15d960068681548110610c5557610c5461436e565b5b906000526020600020906002020160000160009054906101000a900473ffffffffffffffffffffffffffffffffffffffff1633878486604051610c9c959493929190614a93565b60405180910390a15050505050565b610cb3611bd6565b73ffffffffffffffffffffffffffffffffffffffff168573ffffffffffffffffffffffffffffffffffffffff161480610cf95750610cf885610cf3611bd6565b611a27565b5b610d38576040517f08c379a0000000000000000000000000000000000000000000000000000000008152600401610d2f90614b5f565b60405180910390fd5b610d458585858585611f17565b5050505050565b610d55826109d0565b610d6681610d61611bd6565b611bde565b610d70838361222b565b505050565b610d7d611bd6565b73ffffffffffffffffffffffffffffffffffffffff168173ffffffffffffffffffffffffffffffffffffffff1614610dea576040517f08c379a0000000000000000000000000000000000000000000000000000000008152600401610de190614bf1565b60405180910390fd5b610df4828261230c565b5050565b60608151835114610e3e576040517f08c379a0000000000000000000000000000000000000000000000000000000008152600401610e3590614c83565b60405180910390fd5b6000835167ffffffffffffffff811115610e5b57610e5a6134f7565b5b604051908082528060200260200182016040528015610e895781602001602082028036833780820191505090505b50905060005b8451811015610f0657610ed6858281518110610eae57610ead61436e565b5b6020026020010151858381518110610ec957610ec861436e565b5b60200260200101516105db565b828281518110610ee957610ee861436e565b5b60200260200101818152505080610eff90614438565b9050610e8f565b508091505092915050565b600080610f1d836115ab565b119050919050565b6000801b610f3a81610f35611bd6565b611bde565b600660405180604001604052808673ffffffffffffffffffffffffffffffffffffffff16815260200184815250908060018154018082558091505060019003906000526020600020906002020160009091909190915060008201518160000160006101000a81548173ffffffffffffffffffffffffffffffffffffffff021916908373ffffffffffffffffffffffffffffffffffffffff1602179055506020820151816001015550506110008460055485604051806020016040528060008152506123ee565b7fe9eb42f8ecbee1afc1aca5b0be2080f3718fe855ba1c1cdc22db679c7d2b170f8460055485856040516110379493929190614ca3565b60405180910390a16001600560008282546110529190614ce8565b9250508190555050505050565b7f7804d923f43a17d325d77e781528e0793b2edd9890ab45fc64efd7b4b427744c81565b8282600a6000838152602001908152602001600020600082815260200190815260200160002060003373ffffffffffffffffffffffffffffffffffffffff1673ffffffffffffffffffffffffffffffffffffffff16815260200190815260200160002060009054906101000a900460ff1615611134576040517f08c379a000000000000000000000000000000000000000000000000000000000815260040161112b90614d8a565b60405180910390fd5b600061114033876105db565b9050806009600088815260200190815260200160002086815481106111685761116761436e565b5b9060005260206000209060030201600201858154811061118b5761118a61436e565b5b9060005260206000200160008282546111a49190614ce8565b925050819055506001600a6000888152602001908152602001600020600087815260200190815260200160002060003373ffffffffffffffffffffffffffffffffffffffff1673ffffffffffffffffffffffffffffffffffffffff16815260200190815260200160002060006101000a81548160ff0219169083151502179055507f6c7eb2743ec28489909706ea440d909129004996be657d36c6e9add778546abf3387878460405161125a9493929190614daa565b60405180910390a1505050505050565b60006003600084815260200190815260200160002060000160008373ffffffffffffffffffffffffffffffffffffffff1673ffffffffffffffffffffffffffffffffffffffff16815260200190815260200160002060009054906101000a900460ff16905092915050565b6000801b81565b6112ee6112e7611bd6565b8383612584565b5050565b803373ffffffffffffffffffffffffffffffffffffffff166006828154811061131e5761131d61436e565b5b906000526020600020906002020160000160009054906101000a900473ffffffffffffffffffffffffffffffffffffffff1673ffffffffffffffffffffffffffffffffffffffff16146113a6576040517f08c379a000000000000000000000000000000000000000000000000000000000815260040161139d906143e9565b60405180910390fd5b60005b6007805490508110156115a65760006113c1846115ab565b3461140a600785815481106113d9576113d861436e565b5b9060005260206000200160009054906101000a900473ffffffffffffffffffffffffffffffffffffffff16876105db565b6114149190614def565b61141e91906149ae565b9050600080600784815481106114375761143661436e565b5b9060005260206000200160009054906101000a900473ffffffffffffffffffffffffffffffffffffffff1673ffffffffffffffffffffffffffffffffffffffff1683604051611485906148fe565b60006040518083038185875af1925050503d80600081146114c2576040519150601f19603f3d011682016040523d82523d6000602084013e6114c7565b606091505b50915091507f8ebe82e5be42b667883a49114b153e27d7fbf05869a57c0778e7010c18cb7763600687815481106115015761150061436e565b5b906000526020600020906002020160000160009054906101000a900473ffffffffffffffffffffffffffffffffffffffff16600786815481106115475761154661436e565b5b9060005260206000200160009054906101000a900473ffffffffffffffffffffffffffffffffffffffff168885858860405161158896959493929190614e49565b60405180910390a1505050808061159e90614438565b9150506113a9565b505050565b600060046000838152602001908152602001600020549050919050565b6060806060600060096000868152602001908152602001600020805480602002602001604051908101604052809291908181526020016000905b828210156117f75783829060005260206000209060030201604051806060016040529081600082018054611635906144df565b80601f0160208091040260200160405190810160405280929190818152602001828054611661906144df565b80156116ae5780601f10611683576101008083540402835291602001916116ae565b820191906000526020600020905b81548152906001019060200180831161169157829003601f168201915b5050505050815260200160018201805480602002602001604051908101604052809291908181526020016000905b828210156117885783829060005260206000200180546116fb906144df565b80601f0160208091040260200160405190810160405280929190818152602001828054611727906144df565b80156117745780601f1061174957610100808354040283529160200191611774565b820191906000526020600020905b81548152906001019060200180831161175757829003601f168201915b5050505050815260200190600101906116dc565b505050508152602001600282018054806020026020016040519081016040528092919081815260200182805480156117df57602002820191906000526020600020905b8154815260200190600101908083116117cb575b50505050508152505081526020019060010190611602565b5050505090506000815167ffffffffffffffff81111561181a576118196134f7565b5b6040519080825280602002602001820160405280156118485781602001602082028036833780820191505090505b5090506000825167ffffffffffffffff811115611868576118676134f7565b5b6040519080825280602002602001820160405280156118965781602001602082028036833780820191505090505b50905060005b83518110156119ea576000600960008a815260200190815260200160002082815481106118cc576118cb61436e565b5b906000526020600020906003020160020180548060200260200160405190810160405280929190818152602001828054801561192757602002820191906000526020600020905b815481526020019060010190808311611913575b5050505050905060008060005b835181101561199357828482815181106119515761195061436e565b5b60200260200101511115611980578381815181106119725761197161436e565b5b602002602001015192508091505b808061198b90614438565b915050611934565b50808685815181106119a8576119a761436e565b5b602002602001018181525050818585815181106119c8576119c761436e565b5b60200260200101818152505050505080806119e290614438565b91505061189c565b508282829550955095505050509193909250565b611a07826109d0565b611a1881611a13611bd6565b611bde565b611a22838361230c565b505050565b6000600160008473ffffffffffffffffffffffffffffffffffffffff1673ffffffffffffffffffffffffffffffffffffffff16815260200190815260200160002060008373ffffffffffffffffffffffffffffffffffffffff1673ffffffffffffffffffffffffffffffffffffffff16815260200190815260200160002060009054906101000a900460ff16905092915050565b611ac3611bd6565b73ffffffffffffffffffffffffffffffffffffffff168573ffffffffffffffffffffffffffffffffffffffff161480611b095750611b0885611b03611bd6565b611a27565b5b611b48576040517f08c379a0000000000000000000000000000000000000000000000000000000008152600401611b3f90614f23565b60405180910390fd5b611b558585858585611c95565b5050505050565b60007f7965db0b000000000000000000000000000000000000000000000000000000007bffffffffffffffffffffffffffffffffffffffffffffffffffffffff1916827bffffffffffffffffffffffffffffffffffffffffffffffffffffffff19161480611bcf5750611bce826126f1565b5b9050919050565b600033905090565b611be8828261126a565b611c7757611c0d8173ffffffffffffffffffffffffffffffffffffffff1660146127d3565b611c1b8360001c60206127d3565b604051602001611c2c929190615017565b6040516020818303038152906040526040517f08c379a0000000000000000000000000000000000000000000000000000000008152600401611c6e9190613891565b60405180910390fd5b5050565b8060029080519060200190611c9192919061315b565b5050565b600073ffffffffffffffffffffffffffffffffffffffff168473ffffffffffffffffffffffffffffffffffffffff161415611d05576040517f08c379a0000000000000000000000000000000000000000000000000000000008152600401611cfc906150c3565b60405180910390fd5b6000611d0f611bd6565b9050611d2f818787611d2088612a0f565b611d2988612a0f565b87612a89565b600080600086815260200190815260200160002060008873ffffffffffffffffffffffffffffffffffffffff1673ffffffffffffffffffffffffffffffffffffffff16815260200190815260200160002054905083811015611dc6576040517f08c379a0000000000000000000000000000000000000000000000000000000008152600401611dbd90615155565b60405180910390fd5b83810360008087815260200190815260200160002060008973ffffffffffffffffffffffffffffffffffffffff1673ffffffffffffffffffffffffffffffffffffffff168152602001908152602001600020819055508360008087815260200190815260200160002060008873ffffffffffffffffffffffffffffffffffffffff1673ffffffffffffffffffffffffffffffffffffffff1681526020019081526020016000206000828254611e7b9190614ce8565b925050819055508573ffffffffffffffffffffffffffffffffffffffff168773ffffffffffffffffffffffffffffffffffffffff168373ffffffffffffffffffffffffffffffffffffffff167fc3d58168c5ae7397731d063d5bbf3d657854427343f4c083240f7aacaa2d0f628888604051611ef8929190615175565b60405180910390a4611f0e828888888888612bac565b50505050505050565b8151835114611f5b576040517f08c379a0000000000000000000000000000000000000000000000000000000008152600401611f5290615210565b60405180910390fd5b600073ffffffffffffffffffffffffffffffffffffffff168473ffffffffffffffffffffffffffffffffffffffff161415611fcb576040517f08c379a0000000000000000000000000000000000000000000000000000000008152600401611fc2906150c3565b60405180910390fd5b6000611fd5611bd6565b9050611fe5818787878787612a89565b60005b84518110156121965760008582815181106120065761200561436e565b5b6020026020010151905060008583815181106120255761202461436e565b5b60200260200101519050600080600084815260200190815260200160002060008b73ffffffffffffffffffffffffffffffffffffffff1673ffffffffffffffffffffffffffffffffffffffff168152602001908152602001600020549050818110156120c6576040517f08c379a00000000000000000000000000000000000000000000000000000000081526004016120bd90615155565b60405180910390fd5b81810360008085815260200190815260200160002060008c73ffffffffffffffffffffffffffffffffffffffff1673ffffffffffffffffffffffffffffffffffffffff168152602001908152602001600020819055508160008085815260200190815260200160002060008b73ffffffffffffffffffffffffffffffffffffffff1673ffffffffffffffffffffffffffffffffffffffff168152602001908152602001600020600082825461217b9190614ce8565b925050819055505050508061218f90614438565b9050611fe8565b508473ffffffffffffffffffffffffffffffffffffffff168673ffffffffffffffffffffffffffffffffffffffff168273ffffffffffffffffffffffffffffffffffffffff167f4a39dc06d4c0dbc64b70af90fd698a233a518aa5d07e595d983b8c0526c8f7fb878760405161220d929190615230565b60405180910390a4612223818787878787612d84565b505050505050565b612235828261126a565b6123085760016003600084815260200190815260200160002060000160008373ffffffffffffffffffffffffffffffffffffffff1673ffffffffffffffffffffffffffffffffffffffff16815260200190815260200160002060006101000a81548160ff0219169083151502179055506122ad611bd6565b73ffffffffffffffffffffffffffffffffffffffff168173ffffffffffffffffffffffffffffffffffffffff16837f2f8788117e7eff1d82e926ec794901d17c78024a50270940304540a733656f0d60405160405180910390a45b5050565b612316828261126a565b156123ea5760006003600084815260200190815260200160002060000160008373ffffffffffffffffffffffffffffffffffffffff1673ffffffffffffffffffffffffffffffffffffffff16815260200190815260200160002060006101000a81548160ff02191690831515021790555061238f611bd6565b73ffffffffffffffffffffffffffffffffffffffff168173ffffffffffffffffffffffffffffffffffffffff16837ff6391f5c32d9c69d2a47ea670b442974b53935d1edc7fd64eb21e047a839171b60405160405180910390a45b5050565b600073ffffffffffffffffffffffffffffffffffffffff168473ffffffffffffffffffffffffffffffffffffffff16141561245e576040517f08c379a0000000000000000000000000000000000000000000000000000000008152600401612455906152d9565b60405180910390fd5b6000612468611bd6565b90506124898160008761247a88612a0f565b61248388612a0f565b87612a89565b8260008086815260200190815260200160002060008773ffffffffffffffffffffffffffffffffffffffff1673ffffffffffffffffffffffffffffffffffffffff16815260200190815260200160002060008282546124e89190614ce8565b925050819055508473ffffffffffffffffffffffffffffffffffffffff16600073ffffffffffffffffffffffffffffffffffffffff168273ffffffffffffffffffffffffffffffffffffffff167fc3d58168c5ae7397731d063d5bbf3d657854427343f4c083240f7aacaa2d0f628787604051612566929190615175565b60405180910390a461257d81600087878787612bac565b5050505050565b8173ffffffffffffffffffffffffffffffffffffffff168373ffffffffffffffffffffffffffffffffffffffff1614156125f3576040517f08c379a00000000000000000000000000000000000000000000000000000000081526004016125ea9061536b565b60405180910390fd5b80600160008573ffffffffffffffffffffffffffffffffffffffff1673ffffffffffffffffffffffffffffffffffffffff16815260200190815260200160002060008473ffffffffffffffffffffffffffffffffffffffff1673ffffffffffffffffffffffffffffffffffffffff16815260200190815260200160002060006101000a81548160ff0219169083151502179055508173ffffffffffffffffffffffffffffffffffffffff168373ffffffffffffffffffffffffffffffffffffffff167f17307eab39ab6107e8899845ad3d59bd9653f200f220920489ca2b5937696c31836040516126e491906134c1565b60405180910390a3505050565b60007fd9b67a26000000000000000000000000000000000000000000000000000000007bffffffffffffffffffffffffffffffffffffffffffffffffffffffff1916827bffffffffffffffffffffffffffffffffffffffffffffffffffffffff191614806127bc57507f0e89341c000000000000000000000000000000000000000000000000000000007bffffffffffffffffffffffffffffffffffffffffffffffffffffffff1916827bffffffffffffffffffffffffffffffffffffffffffffffffffffffff1916145b806127cc57506127cb82612f5c565b5b9050919050565b6060600060028360026127e69190614def565b6127f09190614ce8565b67ffffffffffffffff811115612809576128086134f7565b5b6040519080825280601f01601f19166020018201604052801561283b5781602001600182028036833780820191505090505b5090507f3000000000000000000000000000000000000000000000000000000000000000816000815181106128735761287261436e565b5b60200101907effffffffffffffffffffffffffffffffffffffffffffffffffffffffffffff1916908160001a9053507f7800000000000000000000000000000000000000000000000000000000000000816001815181106128d7576128d661436e565b5b60200101907effffffffffffffffffffffffffffffffffffffffffffffffffffffffffffff1916908160001a905350600060018460026129179190614def565b6129219190614ce8565b90505b60018111156129c1577f3031323334353637383961626364656600000000000000000000000000000000600f8616601081106129635761296261436e565b5b1a60f81b82828151811061297a5761297961436e565b5b60200101907effffffffffffffffffffffffffffffffffffffffffffffffffffffffffffff1916908160001a905350600485901c9450806129ba9061538b565b9050612924565b5060008414612a05576040517f08c379a00000000000000000000000000000000000000000000000000000000081526004016129fc90615401565b60405180910390fd5b8091505092915050565b60606000600167ffffffffffffffff811115612a2e57612a2d6134f7565b5b604051908082528060200260200182016040528015612a5c5781602001602082028036833780820191505090505b5090508281600081518110612a7457612a7361436e565b5b60200260200101818152505080915050919050565b600860008573ffffffffffffffffffffffffffffffffffffffff1673ffffffffffffffffffffffffffffffffffffffff16815260200190815260200160002060009054906101000a900460ff16612b96576007849080600181540180825580915050600190039060005260206000200160009091909190916101000a81548173ffffffffffffffffffffffffffffffffffffffff021916908373ffffffffffffffffffffffffffffffffffffffff1602179055506001600860008673ffffffffffffffffffffffffffffffffffffffff1673ffffffffffffffffffffffffffffffffffffffff16815260200190815260200160002060006101000a81548160ff0219169083151502179055505b612ba4868686868686612fc6565b505050505050565b612bcb8473ffffffffffffffffffffffffffffffffffffffff16613140565b15612d7c578373ffffffffffffffffffffffffffffffffffffffff1663f23a6e6187878686866040518663ffffffff1660e01b8152600401612c11959493929190615421565b6020604051808303816000875af1925050508015612c4d57506040513d601f19601f82011682018060405250810190612c4a9190615490565b60015b612cf357612c596154ca565b806308c379a01415612cb65750612c6e6154ec565b80612c795750612cb8565b806040517f08c379a0000000000000000000000000000000000000000000000000000000008152600401612cad9190613891565b60405180910390fd5b505b6040517f08c379a0000000000000000000000000000000000000000000000000000000008152600401612cea906155f4565b60405180910390fd5b63f23a6e6160e01b7bffffffffffffffffffffffffffffffffffffffffffffffffffffffff1916817bffffffffffffffffffffffffffffffffffffffffffffffffffffffff191614612d7a576040517f08c379a0000000000000000000000000000000000000000000000000000000008152600401612d7190615686565b60405180910390fd5b505b505050505050565b612da38473ffffffffffffffffffffffffffffffffffffffff16613140565b15612f54578373ffffffffffffffffffffffffffffffffffffffff1663bc197c8187878686866040518663ffffffff1660e01b8152600401612de99594939291906156a6565b6020604051808303816000875af1925050508015612e2557506040513d601f19601f82011682018060405250810190612e229190615490565b60015b612ecb57612e316154ca565b806308c379a01415612e8e5750612e466154ec565b80612e515750612e90565b806040517f08c379a0000000000000000000000000000000000000000000000000000000008152600401612e859190613891565b60405180910390fd5b505b6040517f08c379a0000000000000000000000000000000000000000000000000000000008152600401612ec2906155f4565b60405180910390fd5b63bc197c8160e01b7bffffffffffffffffffffffffffffffffffffffffffffffffffffffff1916817bffffffffffffffffffffffffffffffffffffffffffffffffffffffff191614612f52576040517f08c379a0000000000000000000000000000000000000000000000000000000008152600401612f4990615686565b60405180910390fd5b505b505050505050565b60007f01ffc9a7000000000000000000000000000000000000000000000000000000007bffffffffffffffffffffffffffffffffffffffffffffffffffffffff1916827bffffffffffffffffffffffffffffffffffffffffffffffffffffffff1916149050919050565b612fd4868686868686613153565b600073ffffffffffffffffffffffffffffffffffffffff168573ffffffffffffffffffffffffffffffffffffffff1614156130865760005b8351811015613084578281815181106130285761302761436e565b5b6020026020010151600460008684815181106130475761304661436e565b5b60200260200101518152602001908152602001600020600082825461306c9190614ce8565b925050819055508061307d90614438565b905061300c565b505b600073ffffffffffffffffffffffffffffffffffffffff168473ffffffffffffffffffffffffffffffffffffffff1614156131385760005b8351811015613136578281815181106130da576130d961436e565b5b6020026020010151600460008684815181106130f9576130f861436e565b5b60200260200101518152602001908152602001600020600082825461311e919061570e565b925050819055508061312f90614438565b90506130be565b505b505050505050565b600080823b905060008111915050919050565b505050505050565b828054613167906144df565b90600052602060002090601f01602090048101928261318957600085556131d0565b82601f106131a257805160ff19168380011785556131d0565b828001600101855582156131d0579182015b828111156131cf5782518255916020019190600101906131b4565b5b5090506131dd919061328e565b5090565b828054828255906000526020600020908101928215613230579160200282015b8281111561322f57825182908051906020019061321f92919061315b565b5091602001919060010190613201565b5b50905061323d91906132ab565b5090565b82805482825590600052602060002090810192821561327d579160200282015b8281111561327c578251825591602001919060010190613261565b5b50905061328a919061328e565b5090565b5b808211156132a757600081600090555060010161328f565b5090565b5b808211156132cb57600081816132c291906132cf565b506001016132ac565b5090565b5080546132db906144df565b6000825580601f106132ed575061330c565b601f01602090049060005260206000209081019061330b919061328e565b5b50565b6000604051905090565b600080fd5b600080fd5b600073ffffffffffffffffffffffffffffffffffffffff82169050919050565b600061334e82613323565b9050919050565b61335e81613343565b811461336957600080fd5b50565b60008135905061337b81613355565b92915050565b6000819050919050565b61339481613381565b811461339f57600080fd5b50565b6000813590506133b18161338b565b92915050565b600080604083850312156133ce576133cd613319565b5b60006133dc8582860161336c565b92505060206133ed858286016133a2565b9150509250929050565b61340081613381565b82525050565b600060208201905061341b60008301846133f7565b92915050565b60007fffffffff0000000000000000000000000000000000000000000000000000000082169050919050565b61345681613421565b811461346157600080fd5b50565b6000813590506134738161344d565b92915050565b60006020828403121561348f5761348e613319565b5b600061349d84828501613464565b91505092915050565b60008115159050919050565b6134bb816134a6565b82525050565b60006020820190506134d660008301846134b2565b92915050565b600080fd5b600080fd5b6000601f19601f8301169050919050565b7f4e487b7100000000000000000000000000000000000000000000000000000000600052604160045260246000fd5b61352f826134e6565b810181811067ffffffffffffffff8211171561354e5761354d6134f7565b5b80604052505050565b600061356161330f565b905061356d8282613526565b919050565b600067ffffffffffffffff82111561358d5761358c6134f7565b5b613596826134e6565b9050602081019050919050565b82818337600083830152505050565b60006135c56135c084613572565b613557565b9050828152602081018484840111156135e1576135e06134e1565b5b6135ec8482856135a3565b509392505050565b600082601f830112613609576136086134dc565b5b81356136198482602086016135b2565b91505092915050565b60006020828403121561363857613637613319565b5b600082013567ffffffffffffffff8111156136565761365561331e565b5b613662848285016135f4565b91505092915050565b600067ffffffffffffffff821115613686576136856134f7565b5b602082029050602081019050919050565b600080fd5b60006136af6136aa8461366b565b613557565b905080838252602082019050602084028301858111156136d2576136d1613697565b5b835b8181101561371957803567ffffffffffffffff8111156136f7576136f66134dc565b5b80860161370489826135f4565b855260208501945050506020810190506136d4565b5050509392505050565b600082601f830112613738576137376134dc565b5b813561374884826020860161369c565b91505092915050565b60008060006060848603121561376a57613769613319565b5b6000613778868287016133a2565b935050602084013567ffffffffffffffff8111156137995761379861331e565b5b6137a5868287016135f4565b925050604084013567ffffffffffffffff8111156137c6576137c561331e565b5b6137d286828701613723565b9150509250925092565b6000602082840312156137f2576137f1613319565b5b6000613800848285016133a2565b91505092915050565b600081519050919050565b600082825260208201905092915050565b60005b83811015613843578082015181840152602081019050613828565b83811115613852576000848401525b50505050565b600061386382613809565b61386d8185613814565b935061387d818560208601613825565b613886816134e6565b840191505092915050565b600060208201905081810360008301526138ab8184613858565b905092915050565b6000819050919050565b6138c6816138b3565b81146138d157600080fd5b50565b6000813590506138e3816138bd565b92915050565b6000602082840312156138ff576138fe613319565b5b600061390d848285016138d4565b91505092915050565b61391f816138b3565b82525050565b600060208201905061393a6000830184613916565b92915050565b600067ffffffffffffffff82111561395b5761395a6134f7565b5b602082029050602081019050919050565b600061397f61397a84613940565b613557565b905080838252602082019050602084028301858111156139a2576139a1613697565b5b835b818110156139cb57806139b788826133a2565b8452602084019350506020810190506139a4565b5050509392505050565b600082601f8301126139ea576139e96134dc565b5b81356139fa84826020860161396c565b91505092915050565b600067ffffffffffffffff821115613a1e57613a1d6134f7565b5b613a27826134e6565b9050602081019050919050565b6000613a47613a4284613a03565b613557565b905082815260208101848484011115613a6357613a626134e1565b5b613a6e8482856135a3565b509392505050565b600082601f830112613a8b57613a8a6134dc565b5b8135613a9b848260208601613a34565b91505092915050565b600080600080600060a08688031215613ac057613abf613319565b5b6000613ace8882890161336c565b9550506020613adf8882890161336c565b945050604086013567ffffffffffffffff811115613b0057613aff61331e565b5b613b0c888289016139d5565b935050606086013567ffffffffffffffff811115613b2d57613b2c61331e565b5b613b39888289016139d5565b925050608086013567ffffffffffffffff811115613b5a57613b5961331e565b5b613b6688828901613a76565b9150509295509295909350565b60008060408385031215613b8a57613b89613319565b5b6000613b98858286016138d4565b9250506020613ba98582860161336c565b9150509250929050565b600067ffffffffffffffff821115613bce57613bcd6134f7565b5b602082029050602081019050919050565b6000613bf2613bed84613bb3565b613557565b90508083825260208201905060208402830185811115613c1557613c14613697565b5b835b81811015613c3e5780613c2a888261336c565b845260208401935050602081019050613c17565b5050509392505050565b600082601f830112613c5d57613c5c6134dc565b5b8135613c6d848260208601613bdf565b91505092915050565b60008060408385031215613c8d57613c8c613319565b5b600083013567ffffffffffffffff811115613cab57613caa61331e565b5b613cb785828601613c48565b925050602083013567ffffffffffffffff811115613cd857613cd761331e565b5b613ce4858286016139d5565b9150509250929050565b600081519050919050565b600082825260208201905092915050565b6000819050602082019050919050565b613d2381613381565b82525050565b6000613d358383613d1a565b60208301905092915050565b6000602082019050919050565b6000613d5982613cee565b613d638185613cf9565b9350613d6e83613d0a565b8060005b83811015613d9f578151613d868882613d29565b9750613d9183613d41565b925050600181019050613d72565b5085935050505092915050565b60006020820190508181036000830152613dc68184613d4e565b905092915050565b6000613dd982613323565b9050919050565b613de981613dce565b8114613df457600080fd5b50565b600081359050613e0681613de0565b92915050565b600080600060608486031215613e2557613e24613319565b5b6000613e3386828701613df7565b9350506020613e44868287016133a2565b9250506040613e55868287016133a2565b9150509250925092565b600080600060608486031215613e7857613e77613319565b5b6000613e86868287016133a2565b9350506020613e97868287016133a2565b9250506040613ea8868287016133a2565b9150509250925092565b613ebb816134a6565b8114613ec657600080fd5b50565b600081359050613ed881613eb2565b92915050565b60008060408385031215613ef557613ef4613319565b5b6000613f038582860161336c565b9250506020613f1485828601613ec9565b9150509250929050565b600081519050919050565b600082825260208201905092915050565b6000819050602082019050919050565b600082825260208201905092915050565b6000613f6682613809565b613f708185613f4a565b9350613f80818560208601613825565b613f89816134e6565b840191505092915050565b600081519050919050565b600082825260208201905092915050565b6000819050602082019050919050565b6000613fcc8383613f5b565b905092915050565b6000602082019050919050565b6000613fec82613f94565b613ff68185613f9f565b93508360208202850161400885613fb0565b8060005b8581101561404457848403895281516140258582613fc0565b945061403083613fd4565b925060208a0199505060018101905061400c565b50829750879550505050505092915050565b600082825260208201905092915050565b600061407282613cee565b61407c8185614056565b935061408783613d0a565b8060005b838110156140b857815161409f8882613d29565b97506140aa83613d41565b92505060018101905061408b565b5085935050505092915050565b600060608301600083015184820360008601526140e28282613f5b565b915050602083015184820360208601526140fc8282613fe1565b915050604083015184820360408601526141168282614067565b9150508091505092915050565b600061412f83836140c5565b905092915050565b6000602082019050919050565b600061414f82613f1e565b6141598185613f29565b93508360208202850161416b85613f3a565b8060005b858110156141a757848403895281516141888582614123565b945061419383614137565b925060208a0199505060018101905061416f565b50829750879550505050505092915050565b600060608201905081810360008301526141d38186614144565b905081810360208301526141e78185613d4e565b905081810360408301526141fb8184613d4e565b9050949350505050565b6000806040838503121561421c5761421b613319565b5b600061422a8582860161336c565b925050602061423b8582860161336c565b9150509250929050565b600080600080600060a0868803121561426157614260613319565b5b600061426f8882890161336c565b95505060206142808882890161336c565b9450506040614291888289016133a2565b93505060606142a2888289016133a2565b925050608086013567ffffffffffffffff8111156142c3576142c261331e565b5b6142cf88828901613a76565b9150509295509295909350565b7f455243313135353a2062616c616e636520717565727920666f7220746865207a60008201527f65726f2061646472657373000000000000000000000000000000000000000000602082015250565b6000614338602b83613814565b9150614343826142dc565b604082019050919050565b600060208201905081810360008301526143678161432b565b9050919050565b7f4e487b7100000000000000000000000000000000000000000000000000000000600052603260045260246000fd5b7f4e6f7420546f6b656e2041646d696e0000000000000000000000000000000000600082015250565b60006143d3600f83613814565b91506143de8261439d565b602082019050919050565b60006020820190508181036000830152614402816143c6565b9050919050565b7f4e487b7100000000000000000000000000000000000000000000000000000000600052601160045260246000fd5b600061444382613381565b91507fffffffffffffffffffffffffffffffffffffffffffffffffffffffffffffffff82141561447657614475614409565b5b600182019050919050565b61448a81613343565b82525050565b600081549050919050565b60008190508160005260206000209050919050565b7f4e487b7100000000000000000000000000000000000000000000000000000000600052602260045260246000fd5b600060028204905060018216806144f757607f821691505b6020821081141561450b5761450a6144b0565b5b50919050565b60008190508160005260206000209050919050565b60008154614533816144df565b61453d8186613f4a565b94506001821660008114614558576001811461456a5761459d565b60ff198316865260208601935061459d565b61457385614511565b60005b8381101561459557815481890152600182019150602081019050614576565b808801955050505b50505092915050565b600081549050919050565b60008190508160005260206000209050919050565b60006145d28383614526565b905092915050565b6000600182019050919050565b60006145f2826145a6565b6145fc8185613f9f565b93508360208202850161460e856145b1565b8060005b858110156146495784840389528161462a85826145c6565b9450614635836145da565b925060208a01995050600181019050614612565b50829750879550505050505092915050565b600081549050919050565b60008190508160005260206000209050919050565b60008160001c9050919050565b6000819050919050565b60006146a56146a08361467b565b614688565b9050919050565b60006146b88254614692565b9050919050565b6000600182019050919050565b60006146d78261465b565b6146e18185614056565b93506146ec83614666565b8060005b8381101561472457614701826146ac565b61470b8882613d29565b9750614716836146bf565b9250506001810190506146f0565b5085935050505092915050565b6000606083016000808401858303600087015261474e8382614526565b92505060018401858303602087015261476783826145e7565b92505060028401858303604087015261478083826146cc565b925050819250505092915050565b600061479a8383614731565b905092915050565b6000600382019050919050565b60006147ba82614490565b6147c48185613f29565b9350836020820285016147d68561449b565b8060005b85811015614811578484038952816147f2858261478e565b94506147fd836147a2565b925060208a019950506001810190506147da565b50829750879550505050505092915050565b60006060820190506148386000830186614481565b61484560208301856133f7565b818103604083015261485781846147af565b9050949350505050565b7f546f6b656e20446f6573204e6f74204578697374000000000000000000000000600082015250565b6000614897601483613814565b91506148a282614861565b602082019050919050565b600060208201905081810360008301526148c68161488a565b9050919050565b600081905092915050565b50565b60006148e86000836148cd565b91506148f3826148d8565b600082019050919050565b6000614909826148db565b9150819050919050565b7f5472616e73616374696f6e206661696c65642100000000000000000000000000600082015250565b6000614949601383613814565b915061495482614913565b602082019050919050565b600060208201905081810360008301526149788161493c565b9050919050565b7f4e487b7100000000000000000000000000000000000000000000000000000000600052601260045260246000fd5b60006149b982613381565b91506149c483613381565b9250826149d4576149d361497f565b5b828204905092915050565b6000819050919050565b6000614a046149ff6149fa84613323565b6149df565b613323565b9050919050565b6000614a16826149e9565b9050919050565b6000614a2882614a0b565b9050919050565b614a3881614a1d565b82525050565b600081519050919050565b600082825260208201905092915050565b6000614a6582614a3e565b614a6f8185614a49565b9350614a7f818560208601613825565b614a88816134e6565b840191505092915050565b600060a082019050614aa86000830188614a2f565b614ab56020830187614481565b614ac260408301866133f7565b614acf60608301856133f7565b8181036080830152614ae18184614a5a565b90509695505050505050565b7f455243313135353a207472616e736665722063616c6c6572206973206e6f742060008201527f6f776e6572206e6f7220617070726f7665640000000000000000000000000000602082015250565b6000614b49603283613814565b9150614b5482614aed565b604082019050919050565b60006020820190508181036000830152614b7881614b3c565b9050919050565b7f416363657373436f6e74726f6c3a2063616e206f6e6c792072656e6f756e636560008201527f20726f6c657320666f722073656c660000000000000000000000000000000000602082015250565b6000614bdb602f83613814565b9150614be682614b7f565b604082019050919050565b60006020820190508181036000830152614c0a81614bce565b9050919050565b7f455243313135353a206163636f756e747320616e6420696473206c656e67746860008201527f206d69736d617463680000000000000000000000000000000000000000000000602082015250565b6000614c6d602983613814565b9150614c7882614c11565b604082019050919050565b60006020820190508181036000830152614c9c81614c60565b9050919050565b6000608082019050614cb86000830187614a2f565b614cc560208301866133f7565b614cd260408301856133f7565b614cdf60608301846133f7565b95945050505050565b6000614cf382613381565b9150614cfe83613381565b9250827fffffffffffffffffffffffffffffffffffffffffffffffffffffffffffffffff03821115614d3357614d32614409565b5b828201905092915050565b7f416c726561647920766f74656400000000000000000000000000000000000000600082015250565b6000614d74600d83613814565b9150614d7f82614d3e565b602082019050919050565b60006020820190508181036000830152614da381614d67565b9050919050565b6000608082019050614dbf6000830187614481565b614dcc60208301866133f7565b614dd960408301856133f7565b614de660608301846133f7565b95945050505050565b6000614dfa82613381565b9150614e0583613381565b9250817fffffffffffffffffffffffffffffffffffffffffffffffffffffffffffffffff0483118215151615614e3e57614e3d614409565b5b828202905092915050565b600060c082019050614e5e6000830189614a2f565b614e6b6020830188614481565b614e7860408301876133f7565b614e8560608301866134b2565b8181036080830152614e978185614a5a565b9050614ea660a08301846133f7565b979650505050505050565b7f455243313135353a2063616c6c6572206973206e6f74206f776e6572206e6f7260008201527f20617070726f7665640000000000000000000000000000000000000000000000602082015250565b6000614f0d602983613814565b9150614f1882614eb1565b604082019050919050565b60006020820190508181036000830152614f3c81614f00565b9050919050565b600081905092915050565b7f416363657373436f6e74726f6c3a206163636f756e7420000000000000000000600082015250565b6000614f84601783614f43565b9150614f8f82614f4e565b601782019050919050565b6000614fa582613809565b614faf8185614f43565b9350614fbf818560208601613825565b80840191505092915050565b7f206973206d697373696e6720726f6c6520000000000000000000000000000000600082015250565b6000615001601183614f43565b915061500c82614fcb565b601182019050919050565b600061502282614f77565b915061502e8285614f9a565b915061503982614ff4565b91506150458284614f9a565b91508190509392505050565b7f455243313135353a207472616e7366657220746f20746865207a65726f20616460008201527f6472657373000000000000000000000000000000000000000000000000000000602082015250565b60006150ad602583613814565b91506150b882615051565b604082019050919050565b600060208201905081810360008301526150dc816150a0565b9050919050565b7f455243313135353a20696e73756666696369656e742062616c616e636520666f60008201527f72207472616e7366657200000000000000000000000000000000000000000000602082015250565b600061513f602a83613814565b915061514a826150e3565b604082019050919050565b6000602082019050818103600083015261516e81615132565b9050919050565b600060408201905061518a60008301856133f7565b61519760208301846133f7565b9392505050565b7f455243313135353a2069647320616e6420616d6f756e7473206c656e6774682060008201527f6d69736d61746368000000000000000000000000000000000000000000000000602082015250565b60006151fa602883613814565b91506152058261519e565b604082019050919050565b60006020820190508181036000830152615229816151ed565b9050919050565b6000604082019050818103600083015261524a8185613d4e565b9050818103602083015261525e8184613d4e565b90509392505050565b7f455243313135353a206d696e7420746f20746865207a65726f2061646472657360008201527f7300000000000000000000000000000000000000000000000000000000000000602082015250565b60006152c3602183613814565b91506152ce82615267565b604082019050919050565b600060208201905081810360008301526152f2816152b6565b9050919050565b7f455243313135353a2073657474696e6720617070726f76616c2073746174757360008201527f20666f722073656c660000000000000000000000000000000000000000000000602082015250565b6000615355602983613814565b9150615360826152f9565b604082019050919050565b6000602082019050818103600083015261538481615348565b9050919050565b600061539682613381565b915060008214156153aa576153a9614409565b5b600182039050919050565b7f537472696e67733a20686578206c656e67746820696e73756666696369656e74600082015250565b60006153eb602083613814565b91506153f6826153b5565b602082019050919050565b6000602082019050818103600083015261541a816153de565b9050919050565b600060a0820190506154366000830188614481565b6154436020830187614481565b61545060408301866133f7565b61545d60608301856133f7565b818103608083015261546f8184614a5a565b90509695505050505050565b60008151905061548a8161344d565b92915050565b6000602082840312156154a6576154a5613319565b5b60006154b48482850161547b565b91505092915050565b60008160e01c9050919050565b600060033d11156154e95760046000803e6154e66000516154bd565b90505b90565b600060443d10156154fc5761557f565b61550461330f565b60043d036004823e80513d602482011167ffffffffffffffff8211171561552c57505061557f565b808201805167ffffffffffffffff81111561554a575050505061557f565b80602083010160043d03850181111561556757505050505061557f565b61557682602001850186613526565b82955050505050505b90565b7f455243313135353a207472616e7366657220746f206e6f6e204552433131353560008201527f526563656976657220696d706c656d656e746572000000000000000000000000602082015250565b60006155de603483613814565b91506155e982615582565b604082019050919050565b6000602082019050818103600083015261560d816155d1565b9050919050565b7f455243313135353a204552433131353552656365697665722072656a6563746560008201527f6420746f6b656e73000000000000000000000000000000000000000000000000602082015250565b6000615670602883613814565b915061567b82615614565b604082019050919050565b6000602082019050818103600083015261569f81615663565b9050919050565b600060a0820190506156bb6000830188614481565b6156c86020830187614481565b81810360408301526156da8186613d4e565b905081810360608301526156ee8185613d4e565b905081810360808301526157028184614a5a565b90509695505050505050565b600061571982613381565b915061572483613381565b92508282101561573757615736614409565b5b82820390509291505056fea2646970667358221220f6be1a96f2ddd27718513b6b69ec4553285f060caaa02fcda6bf8cba6e6e10a264736f6c634300080b0033",
  "immutableReferences": {},
  "source": "// SPDX-License-Identifier: MIT\r\npragma solidity ^0.8.2;\r\n\r\nimport \"@openzeppelin/contracts/token/ERC1155/ERC1155.sol\";\r\nimport \"@openzeppelin/contracts/access/AccessControl.sol\";\r\nimport \"@openzeppelin/contracts/token/ERC1155/extensions/ERC1155Supply.sol\";\r\n\r\n/// @custom:security-contact adityapatkar22@gmail.com, archeelparekh11@gmail.com\r\ncontract MyToken is ERC1155, AccessControl, ERC1155Supply {\r\n    bytes32 public constant URI_SETTER_ROLE = keccak256(\"URI_SETTER_ROLE\");\r\n\r\n    struct Token {\r\n        address payable tokenAdmin;\r\n        uint256 rate;\r\n    }\r\n    uint256 _currentTokenIndex = 0;\r\n    Token[] _tokens;\r\n    address[] private _tokenHolders;\r\n    mapping(address => bool) _tokenHoldersMapping;\r\n\r\n    struct Poll {\r\n        string question;\r\n        string[] options;\r\n        uint256[] votes;\r\n    }\r\n    mapping(uint256 => Poll[]) pollsMapping;\r\n    mapping(uint256 => mapping(uint256 => mapping(address => bool))) votedMapping;\r\n\r\n    event AddNewToken(\r\n        address tokenAdmin,\r\n        uint256 tokenID,\r\n        uint256 amount,\r\n        uint256 rate\r\n    );\r\n    event BuyToken(\r\n        address tokenAdmin,\r\n        address buyer,\r\n        uint256 tokenID,\r\n        uint256 amount,\r\n        bytes data\r\n    );\r\n    event Disburse(\r\n        address tokenAdmin,\r\n        address holder,\r\n        uint256 tokenID,\r\n        bool success,\r\n        bytes data,\r\n        uint256 amount\r\n    );\r\n    event CreatePoll(address tokenAdmin, uint256 tokenID, Poll[] polls);\r\n    event Vote(address Voter, uint256 tokenID, uint256 pollID, uint256 weight);\r\n\r\n    modifier tokenExists(uint256 tokenID) {\r\n        require(\r\n            _tokens[tokenID].tokenAdmin != address(0),\r\n            \"Token Does Not Exist\"\r\n        );\r\n        _;\r\n    }\r\n\r\n    modifier isTokenAdmin(uint256 tokenID) {\r\n        require(_tokens[tokenID].tokenAdmin == msg.sender, \"Not Token Admin\");\r\n        _;\r\n    }\r\n\r\n    modifier notVoted(uint256 tokenID, uint256 pollID) {\r\n        require(!votedMapping[tokenID][pollID][msg.sender], \"Already voted\");\r\n        _;\r\n    }\r\n\r\n    constructor() ERC1155(\"\") {\r\n        _grantRole(DEFAULT_ADMIN_ROLE, msg.sender);\r\n        _grantRole(URI_SETTER_ROLE, msg.sender);\r\n    }\r\n\r\n    function setURI(string memory newuri) public onlyRole(URI_SETTER_ROLE) {\r\n        _setURI(newuri);\r\n    }\r\n\r\n    // Adding a new token\r\n    function addNewToken(\r\n        address payable tokenAdmin,\r\n        uint256 amount,\r\n        uint256 rate\r\n    ) public onlyRole(DEFAULT_ADMIN_ROLE) {\r\n        _tokens.push(Token(tokenAdmin, rate));\r\n        _mint(tokenAdmin, _currentTokenIndex, amount, \"\");\r\n        emit AddNewToken(tokenAdmin, _currentTokenIndex, amount, rate);\r\n        _currentTokenIndex += 1;\r\n    }\r\n\r\n    // Buying a new token\r\n    function buyToken(uint256 tokenID) public payable tokenExists(tokenID) {\r\n        (bool success, bytes memory data) = _tokens[tokenID].tokenAdmin.call{\r\n            value: msg.value\r\n        }(\"\");\r\n        require(success, \"Transaction failed!\");\r\n        uint256 amount = msg.value / _tokens[tokenID].rate;\r\n        _safeTransferFrom(\r\n            _tokens[tokenID].tokenAdmin,\r\n            msg.sender,\r\n            tokenID,\r\n            amount,\r\n            data\r\n        );\r\n        emit BuyToken(\r\n            _tokens[tokenID].tokenAdmin,\r\n            msg.sender,\r\n            tokenID,\r\n            amount,\r\n            data\r\n        );\r\n    }\r\n\r\n    // Disburse to holders\r\n    function disburse(uint256 tokenID) public payable isTokenAdmin(tokenID) {\r\n        for (uint256 i = 0; i < _tokenHolders.length; i++) {\r\n            uint256 amount = (balanceOf(_tokenHolders[i], tokenID) *\r\n                msg.value) / totalSupply(tokenID);\r\n            (bool success, bytes memory data) = _tokenHolders[i].call{\r\n                value: amount\r\n            }(\"\");\r\n            emit Disburse(\r\n                _tokens[tokenID].tokenAdmin,\r\n                _tokenHolders[i],\r\n                tokenID,\r\n                success,\r\n                data,\r\n                amount\r\n            );\r\n        }\r\n    }\r\n\r\n    // Create a poll\r\n    function createPoll(\r\n        uint256 tokenID,\r\n        string memory question,\r\n        string[] memory options\r\n    ) public isTokenAdmin(tokenID) {\r\n        uint256[] memory newVotes = new uint256[](options.length);\r\n        for (uint256 i = 0; i < options.length; i++) {\r\n            newVotes[i] = 0;\r\n        }\r\n        pollsMapping[tokenID].push(Poll(question, options, newVotes));\r\n        emit CreatePoll(msg.sender, tokenID, pollsMapping[tokenID]);\r\n    }\r\n\r\n    // Get all polls\r\n    function getPolls(uint256 tokenID) public view returns(Poll[] memory,uint256[] memory,uint256[] memory) {\r\n        Poll[] memory allPolls = pollsMapping[tokenID]; \r\n        uint256[] memory answers = new uint256[](allPolls.length);\r\n        uint256[] memory numberOfVotes = new uint256[](allPolls.length); \r\n        for(uint256 pollID=0;pollID<allPolls.length;pollID++){\r\n            uint256[] memory votesArray = pollsMapping[tokenID][pollID].votes;\r\n            uint256 largest = 0;\r\n            uint256 option = 0; \r\n\r\n            for(uint256 i = 0; i < votesArray.length; i++){\r\n                if(votesArray[i] > largest) {\r\n                    largest = votesArray[i]; \r\n                    option = i;\r\n                } \r\n            }\r\n            answers[pollID] = option;\r\n            numberOfVotes[pollID] = largest;\r\n        }\r\n        return (allPolls,answers,numberOfVotes);\r\n    }\r\n\r\n    // Vote on a poll\r\n    function vote(\r\n        uint256 tokenID,\r\n        uint256 pollID,\r\n        uint256 option\r\n    ) public notVoted(tokenID, pollID) {\r\n        uint256 balance = balanceOf(msg.sender, tokenID);\r\n        pollsMapping[tokenID][pollID].votes[option] += balance;\r\n        votedMapping[tokenID][pollID][msg.sender] = true;\r\n        emit Vote(msg.sender, tokenID, pollID, balance);\r\n    }\r\n\r\n\r\n    // The following functions are overrides required by Solidity.\r\n    function _beforeTokenTransfer(\r\n        address operator,\r\n        address from,\r\n        address to,\r\n        uint256[] memory ids,\r\n        uint256[] memory amounts,\r\n        bytes memory data\r\n    ) internal override(ERC1155, ERC1155Supply) {\r\n        if (!_tokenHoldersMapping[to]) {\r\n            _tokenHolders.push(to);\r\n            _tokenHoldersMapping[to] = true;\r\n        }\r\n        super._beforeTokenTransfer(operator, from, to, ids, amounts, data);\r\n    }\r\n\r\n    function supportsInterface(bytes4 interfaceId)\r\n        public\r\n        view\r\n        override(ERC1155, AccessControl)\r\n        returns (bool)\r\n    {\r\n        return super.supportsInterface(interfaceId);\r\n    }\r\n}\r\n",
  "sourcePath": "D:\\Archeel\\Final-Year-Project\\SmartContracts\\contracts\\MyToken.sol",
  "compiler": {
    "name": "solc",
    "version": "0.8.11+commit.d7f03943.Emscripten.clang"
  },
  "schemaVersion": "3.4.3",
  "updatedAt": "2021-12-23T13:34:08.398Z",
  "networkType": "ethereum",
  "devdoc": {
    "custom:security-contact": "adityapatkar22@gmail.com, archeelparekh11@gmail.com",
    "kind": "dev",
    "methods": {
      "balanceOf(address,uint256)": {
        "details": "See {IERC1155-balanceOf}. Requirements: - `account` cannot be the zero address."
      },
      "balanceOfBatch(address[],uint256[])": {
        "details": "See {IERC1155-balanceOfBatch}. Requirements: - `accounts` and `ids` must have the same length."
      },
      "exists(uint256)": {
        "details": "Indicates whether any token exist with a given id, or not."
      },
      "getRoleAdmin(bytes32)": {
        "details": "Returns the admin role that controls `role`. See {grantRole} and {revokeRole}. To change a role's admin, use {_setRoleAdmin}."
      },
      "grantRole(bytes32,address)": {
        "details": "Grants `role` to `account`. If `account` had not been already granted `role`, emits a {RoleGranted} event. Requirements: - the caller must have ``role``'s admin role."
      },
      "hasRole(bytes32,address)": {
        "details": "Returns `true` if `account` has been granted `role`."
      },
      "isApprovedForAll(address,address)": {
        "details": "See {IERC1155-isApprovedForAll}."
      },
      "renounceRole(bytes32,address)": {
        "details": "Revokes `role` from the calling account. Roles are often managed via {grantRole} and {revokeRole}: this function's purpose is to provide a mechanism for accounts to lose their privileges if they are compromised (such as when a trusted device is misplaced). If the calling account had been revoked `role`, emits a {RoleRevoked} event. Requirements: - the caller must be `account`."
      },
      "revokeRole(bytes32,address)": {
        "details": "Revokes `role` from `account`. If `account` had been granted `role`, emits a {RoleRevoked} event. Requirements: - the caller must have ``role``'s admin role."
      },
      "safeBatchTransferFrom(address,address,uint256[],uint256[],bytes)": {
        "details": "See {IERC1155-safeBatchTransferFrom}."
      },
      "safeTransferFrom(address,address,uint256,uint256,bytes)": {
        "details": "See {IERC1155-safeTransferFrom}."
      },
      "setApprovalForAll(address,bool)": {
        "details": "See {IERC1155-setApprovalForAll}."
      },
      "totalSupply(uint256)": {
        "details": "Total amount of tokens in with a given id."
      },
      "uri(uint256)": {
        "details": "See {IERC1155MetadataURI-uri}. This implementation returns the same URI for *all* token types. It relies on the token type ID substitution mechanism https://eips.ethereum.org/EIPS/eip-1155#metadata[defined in the EIP]. Clients calling this function must replace the `\\{id\\}` substring with the actual token type ID."
      }
    },
    "version": 1
  },
  "userdoc": {
    "kind": "user",
    "methods": {},
    "version": 1
  }
}