{
  "contractName": "LendHandNFT",
  "abi": [
    {
      "inputs": [],
      "stateMutability": "nonpayable",
      "type": "constructor"
    },
    {
      "anonymous": false,
      "inputs": [
        {
          "indexed": true,
          "internalType": "address",
          "name": "owner",
          "type": "address"
        },
        {
          "indexed": true,
          "internalType": "address",
          "name": "approved",
          "type": "address"
        },
        {
          "indexed": true,
          "internalType": "uint256",
          "name": "tokenId",
          "type": "uint256"
        }
      ],
      "name": "Approval",
      "type": "event"
    },
    {
      "anonymous": false,
      "inputs": [
        {
          "indexed": true,
          "internalType": "address",
          "name": "owner",
          "type": "address"
        },
        {
          "indexed": true,
          "internalType": "address",
          "name": "operator",
          "type": "address"
        },
        {
          "indexed": false,
          "internalType": "bool",
          "name": "approved",
          "type": "bool"
        }
      ],
      "name": "ApprovalForAll",
      "type": "event"
    },
    {
      "anonymous": false,
      "inputs": [
        {
          "indexed": true,
          "internalType": "address",
          "name": "from",
          "type": "address"
        },
        {
          "indexed": true,
          "internalType": "address",
          "name": "to",
          "type": "address"
        },
        {
          "indexed": true,
          "internalType": "uint256",
          "name": "tokenId",
          "type": "uint256"
        }
      ],
      "name": "Transfer",
      "type": "event"
    },
    {
      "inputs": [
        {
          "internalType": "address",
          "name": "to",
          "type": "address"
        },
        {
          "internalType": "uint256",
          "name": "tokenId",
          "type": "uint256"
        }
      ],
      "name": "approve",
      "outputs": [],
      "stateMutability": "nonpayable",
      "type": "function"
    },
    {
      "inputs": [
        {
          "internalType": "address",
          "name": "owner",
          "type": "address"
        }
      ],
      "name": "balanceOf",
      "outputs": [
        {
          "internalType": "uint256",
          "name": "",
          "type": "uint256"
        }
      ],
      "stateMutability": "view",
      "type": "function",
      "constant": true
    },
    {
      "inputs": [
        {
          "internalType": "uint256",
          "name": "tokenId",
          "type": "uint256"
        }
      ],
      "name": "getApproved",
      "outputs": [
        {
          "internalType": "address",
          "name": "",
          "type": "address"
        }
      ],
      "stateMutability": "view",
      "type": "function",
      "constant": true
    },
    {
      "inputs": [
        {
          "internalType": "address",
          "name": "owner",
          "type": "address"
        },
        {
          "internalType": "address",
          "name": "operator",
          "type": "address"
        }
      ],
      "name": "isApprovedForAll",
      "outputs": [
        {
          "internalType": "bool",
          "name": "",
          "type": "bool"
        }
      ],
      "stateMutability": "view",
      "type": "function",
      "constant": true
    },
    {
      "inputs": [],
      "name": "name",
      "outputs": [
        {
          "internalType": "string",
          "name": "",
          "type": "string"
        }
      ],
      "stateMutability": "view",
      "type": "function",
      "constant": true
    },
    {
      "inputs": [
        {
          "internalType": "uint256",
          "name": "tokenId",
          "type": "uint256"
        }
      ],
      "name": "ownerOf",
      "outputs": [
        {
          "internalType": "address",
          "name": "",
          "type": "address"
        }
      ],
      "stateMutability": "view",
      "type": "function",
      "constant": true
    },
    {
      "inputs": [
        {
          "internalType": "address",
          "name": "from",
          "type": "address"
        },
        {
          "internalType": "address",
          "name": "to",
          "type": "address"
        },
        {
          "internalType": "uint256",
          "name": "tokenId",
          "type": "uint256"
        }
      ],
      "name": "safeTransferFrom",
      "outputs": [],
      "stateMutability": "nonpayable",
      "type": "function"
    },
    {
      "inputs": [
        {
          "internalType": "address",
          "name": "from",
          "type": "address"
        },
        {
          "internalType": "address",
          "name": "to",
          "type": "address"
        },
        {
          "internalType": "uint256",
          "name": "tokenId",
          "type": "uint256"
        },
        {
          "internalType": "bytes",
          "name": "_data",
          "type": "bytes"
        }
      ],
      "name": "safeTransferFrom",
      "outputs": [],
      "stateMutability": "nonpayable",
      "type": "function"
    },
    {
      "inputs": [
        {
          "internalType": "address",
          "name": "operator",
          "type": "address"
        },
        {
          "internalType": "bool",
          "name": "approved",
          "type": "bool"
        }
      ],
      "name": "setApprovalForAll",
      "outputs": [],
      "stateMutability": "nonpayable",
      "type": "function"
    },
    {
      "inputs": [
        {
          "internalType": "bytes4",
          "name": "interfaceId",
          "type": "bytes4"
        }
      ],
      "name": "supportsInterface",
      "outputs": [
        {
          "internalType": "bool",
          "name": "",
          "type": "bool"
        }
      ],
      "stateMutability": "view",
      "type": "function",
      "constant": true
    },
    {
      "inputs": [],
      "name": "symbol",
      "outputs": [
        {
          "internalType": "string",
          "name": "",
          "type": "string"
        }
      ],
      "stateMutability": "view",
      "type": "function",
      "constant": true
    },
    {
      "inputs": [
        {
          "internalType": "uint256",
          "name": "tokenId",
          "type": "uint256"
        }
      ],
      "name": "tokenURI",
      "outputs": [
        {
          "internalType": "string",
          "name": "",
          "type": "string"
        }
      ],
      "stateMutability": "view",
      "type": "function",
      "constant": true
    },
    {
      "inputs": [
        {
          "internalType": "address",
          "name": "from",
          "type": "address"
        },
        {
          "internalType": "address",
          "name": "to",
          "type": "address"
        },
        {
          "internalType": "uint256",
          "name": "tokenId",
          "type": "uint256"
        }
      ],
      "name": "transferFrom",
      "outputs": [],
      "stateMutability": "nonpayable",
      "type": "function"
    },
    {
      "inputs": [
        {
          "internalType": "address",
          "name": "player",
          "type": "address"
        },
        {
          "internalType": "string",
          "name": "tokenURI",
          "type": "string"
        }
      ],
      "name": "awardItem",
      "outputs": [
        {
          "internalType": "uint256",
          "name": "",
          "type": "uint256"
        }
      ],
      "stateMutability": "nonpayable",
      "type": "function"
    }
  ],
  "bytecode": "0x60806040523480156200001157600080fd5b506040518060400160405280600881526020017f47616d654974656d0000000000000000000000000000000000000000000000008152506040518060400160405280600381526020017f49544d0000000000000000000000000000000000000000000000000000000000815250816000908051906020019062000096929190620000b8565b508060019080519060200190620000af929190620000b8565b505050620001cd565b828054620000c69062000197565b90600052602060002090601f016020900481019282620000ea576000855562000136565b82601f106200010557805160ff191683800117855562000136565b8280016001018555821562000136579182015b828111156200013557825182559160200191906001019062000118565b5b50905062000145919062000149565b5090565b5b80821115620001645760008160009055506001016200014a565b5090565b7f4e487b7100000000000000000000000000000000000000000000000000000000600052602260045260246000fd5b60006002820490506001821680620001b057607f821691505b60208210811415620001c757620001c662000168565b5b50919050565b612bc280620001dd6000396000f3fe608060405234801561001057600080fd5b50600436106100ea5760003560e01c806370a082311161008c578063b88d4fde11610066578063b88d4fde1461025b578063c87b56dd14610277578063cf378343146102a7578063e985e9c5146102d7576100ea565b806370a08231146101f157806395d89b4114610221578063a22cb4651461023f576100ea565b8063095ea7b3116100c8578063095ea7b31461016d57806323b872dd1461018957806342842e0e146101a55780636352211e146101c1576100ea565b806301ffc9a7146100ef57806306fdde031461011f578063081812fc1461013d575b600080fd5b61010960048036038101906101049190611924565b610307565b604051610116919061196c565b60405180910390f35b6101276103e9565b6040516101349190611a20565b60405180910390f35b61015760048036038101906101529190611a78565b61047b565b6040516101649190611ae6565b60405180910390f35b61018760048036038101906101829190611b2d565b610500565b005b6101a3600480360381019061019e9190611b6d565b610618565b005b6101bf60048036038101906101ba9190611b6d565b610678565b005b6101db60048036038101906101d69190611a78565b610698565b6040516101e89190611ae6565b60405180910390f35b61020b60048036038101906102069190611bc0565b61074a565b6040516102189190611bfc565b60405180910390f35b610229610802565b6040516102369190611a20565b60405180910390f35b61025960048036038101906102549190611c43565b610894565b005b61027560048036038101906102709190611db8565b6108aa565b005b610291600480360381019061028c9190611a78565b61090c565b60405161029e9190611a20565b60405180910390f35b6102c160048036038101906102bc9190611edc565b610a5e565b6040516102ce9190611bfc565b60405180910390f35b6102f160048036038101906102ec9190611f38565b610a96565b6040516102fe919061196c565b60405180910390f35b60007f80ac58cd000000000000000000000000000000000000000000000000000000007bffffffffffffffffffffffffffffffffffffffffffffffffffffffff1916827bffffffffffffffffffffffffffffffffffffffffffffffffffffffff191614806103d257507f5b5e139f000000000000000000000000000000000000000000000000000000007bffffffffffffffffffffffffffffffffffffffffffffffffffffffff1916827bffffffffffffffffffffffffffffffffffffffffffffffffffffffff1916145b806103e257506103e182610b2a565b5b9050919050565b6060600080546103f890611fa7565b80601f016020809104026020016040519081016040528092919081815260200182805461042490611fa7565b80156104715780601f1061044657610100808354040283529160200191610471565b820191906000526020600020905b81548152906001019060200180831161045457829003601f168201915b5050505050905090565b600061048682610b94565b6104c5576040517f08c379a00000000000000000000000000000000000000000000000000000000081526004016104bc9061204b565b60405180910390fd5b6004600083815260200190815260200160002060009054906101000a900473ffffffffffffffffffffffffffffffffffffffff169050919050565b600061050b82610698565b90508073ffffffffffffffffffffffffffffffffffffffff168373ffffffffffffffffffffffffffffffffffffffff16141561057c576040517f08c379a0000000000000000000000000000000000000000000000000000000008152600401610573906120dd565b60405180910390fd5b8073ffffffffffffffffffffffffffffffffffffffff1661059b610c00565b73ffffffffffffffffffffffffffffffffffffffff1614806105ca57506105c9816105c4610c00565b610a96565b5b610609576040517f08c379a00000000000000000000000000000000000000000000000000000000081526004016106009061216f565b60405180910390fd5b6106138383610c08565b505050565b610629610623610c00565b82610cc1565b610668576040517f08c379a000000000000000000000000000000000000000000000000000000000815260040161065f90612201565b60405180910390fd5b610673838383610d9f565b505050565b610693838383604051806020016040528060008152506108aa565b505050565b6000806002600084815260200190815260200160002060009054906101000a900473ffffffffffffffffffffffffffffffffffffffff169050600073ffffffffffffffffffffffffffffffffffffffff168173ffffffffffffffffffffffffffffffffffffffff161415610741576040517f08c379a000000000000000000000000000000000000000000000000000000000815260040161073890612293565b60405180910390fd5b80915050919050565b60008073ffffffffffffffffffffffffffffffffffffffff168273ffffffffffffffffffffffffffffffffffffffff1614156107bb576040517f08c379a00000000000000000000000000000000000000000000000000000000081526004016107b290612325565b60405180910390fd5b600360008373ffffffffffffffffffffffffffffffffffffffff1673ffffffffffffffffffffffffffffffffffffffff168152602001908152602001600020549050919050565b60606001805461081190611fa7565b80601f016020809104026020016040519081016040528092919081815260200182805461083d90611fa7565b801561088a5780601f1061085f5761010080835404028352916020019161088a565b820191906000526020600020905b81548152906001019060200180831161086d57829003601f168201915b5050505050905090565b6108a661089f610c00565b8383611006565b5050565b6108bb6108b5610c00565b83610cc1565b6108fa576040517f08c379a00000000000000000000000000000000000000000000000000000000081526004016108f190612201565b60405180910390fd5b61090684848484611173565b50505050565b606061091782610b94565b610956576040517f08c379a000000000000000000000000000000000000000000000000000000000815260040161094d906123b7565b60405180910390fd5b600060066000848152602001908152602001600020805461097690611fa7565b80601f01602080910402602001604051908101604052809291908181526020018280546109a290611fa7565b80156109ef5780601f106109c4576101008083540402835291602001916109ef565b820191906000526020600020905b8154815290600101906020018083116109d257829003601f168201915b505050505090506000610a006111cf565b9050600081511415610a16578192505050610a59565b600082511115610a4b578082604051602001610a33929190612413565b60405160208183030381529060405292505050610a59565b610a54846111e6565b925050505b919050565b6000610a6a600761128d565b6000610a7660076112a3565b9050610a8284826112b1565b610a8c818461148b565b8091505092915050565b6000600560008473ffffffffffffffffffffffffffffffffffffffff1673ffffffffffffffffffffffffffffffffffffffff16815260200190815260200160002060008373ffffffffffffffffffffffffffffffffffffffff1673ffffffffffffffffffffffffffffffffffffffff16815260200190815260200160002060009054906101000a900460ff16905092915050565b60007f01ffc9a7000000000000000000000000000000000000000000000000000000007bffffffffffffffffffffffffffffffffffffffffffffffffffffffff1916827bffffffffffffffffffffffffffffffffffffffffffffffffffffffff1916149050919050565b60008073ffffffffffffffffffffffffffffffffffffffff166002600084815260200190815260200160002060009054906101000a900473ffffffffffffffffffffffffffffffffffffffff1673ffffffffffffffffffffffffffffffffffffffff1614159050919050565b600033905090565b816004600083815260200190815260200160002060006101000a81548173ffffffffffffffffffffffffffffffffffffffff021916908373ffffffffffffffffffffffffffffffffffffffff160217905550808273ffffffffffffffffffffffffffffffffffffffff16610c7b83610698565b73ffffffffffffffffffffffffffffffffffffffff167f8c5be1e5ebec7d5bd14f71427d1e84f3dd0314c0f7b2291e5b200ac8c7c3b92560405160405180910390a45050565b6000610ccc82610b94565b610d0b576040517f08c379a0000000000000000000000000000000000000000000000000000000008152600401610d02906124a9565b60405180910390fd5b6000610d1683610698565b90508073ffffffffffffffffffffffffffffffffffffffff168473ffffffffffffffffffffffffffffffffffffffff161480610d8557508373ffffffffffffffffffffffffffffffffffffffff16610d6d8461047b565b73ffffffffffffffffffffffffffffffffffffffff16145b80610d965750610d958185610a96565b5b91505092915050565b8273ffffffffffffffffffffffffffffffffffffffff16610dbf82610698565b73ffffffffffffffffffffffffffffffffffffffff1614610e15576040517f08c379a0000000000000000000000000000000000000000000000000000000008152600401610e0c9061253b565b60405180910390fd5b600073ffffffffffffffffffffffffffffffffffffffff168273ffffffffffffffffffffffffffffffffffffffff161415610e85576040517f08c379a0000000000000000000000000000000000000000000000000000000008152600401610e7c906125cd565b60405180910390fd5b610e908383836114ff565b610e9b600082610c08565b6001600360008573ffffffffffffffffffffffffffffffffffffffff1673ffffffffffffffffffffffffffffffffffffffff1681526020019081526020016000206000828254610eeb919061261c565b925050819055506001600360008473ffffffffffffffffffffffffffffffffffffffff1673ffffffffffffffffffffffffffffffffffffffff1681526020019081526020016000206000828254610f429190612650565b92505081905550816002600083815260200190815260200160002060006101000a81548173ffffffffffffffffffffffffffffffffffffffff021916908373ffffffffffffffffffffffffffffffffffffffff160217905550808273ffffffffffffffffffffffffffffffffffffffff168473ffffffffffffffffffffffffffffffffffffffff167fddf252ad1be2c89b69c2b068fc378daa952ba7f163c4a11628f55a4df523b3ef60405160405180910390a4611001838383611504565b505050565b8173ffffffffffffffffffffffffffffffffffffffff168373ffffffffffffffffffffffffffffffffffffffff161415611075576040517f08c379a000000000000000000000000000000000000000000000000000000000815260040161106c906126f2565b60405180910390fd5b80600560008573ffffffffffffffffffffffffffffffffffffffff1673ffffffffffffffffffffffffffffffffffffffff16815260200190815260200160002060008473ffffffffffffffffffffffffffffffffffffffff1673ffffffffffffffffffffffffffffffffffffffff16815260200190815260200160002060006101000a81548160ff0219169083151502179055508173ffffffffffffffffffffffffffffffffffffffff168373ffffffffffffffffffffffffffffffffffffffff167f17307eab39ab6107e8899845ad3d59bd9653f200f220920489ca2b5937696c3183604051611166919061196c565b60405180910390a3505050565b61117e848484610d9f565b61118a84848484611509565b6111c9576040517f08c379a00000000000000000000000000000000000000000000000000000000081526004016111c090612784565b60405180910390fd5b50505050565b606060405180602001604052806000815250905090565b60606111f182610b94565b611230576040517f08c379a000000000000000000000000000000000000000000000000000000000815260040161122790612816565b60405180910390fd5b600061123a6111cf565b9050600081511161125a5760405180602001604052806000815250611285565b8061126484611691565b604051602001611275929190612413565b6040516020818303038152906040525b915050919050565b6001816000016000828254019250508190555050565b600081600001549050919050565b600073ffffffffffffffffffffffffffffffffffffffff168273ffffffffffffffffffffffffffffffffffffffff161415611321576040517f08c379a000000000000000000000000000000000000000000000000000000000815260040161131890612882565b60405180910390fd5b61132a81610b94565b1561136a576040517f08c379a0000000000000000000000000000000000000000000000000000000008152600401611361906128ee565b60405180910390fd5b611376600083836114ff565b6001600360008473ffffffffffffffffffffffffffffffffffffffff1673ffffffffffffffffffffffffffffffffffffffff16815260200190815260200160002060008282546113c69190612650565b92505081905550816002600083815260200190815260200160002060006101000a81548173ffffffffffffffffffffffffffffffffffffffff021916908373ffffffffffffffffffffffffffffffffffffffff160217905550808273ffffffffffffffffffffffffffffffffffffffff16600073ffffffffffffffffffffffffffffffffffffffff167fddf252ad1be2c89b69c2b068fc378daa952ba7f163c4a11628f55a4df523b3ef60405160405180910390a461148760008383611504565b5050565b61149482610b94565b6114d3576040517f08c379a00000000000000000000000000000000000000000000000000000000081526004016114ca90612980565b60405180910390fd5b806006600084815260200190815260200160002090805190602001906114fa929190611815565b505050565b505050565b505050565b600061152a8473ffffffffffffffffffffffffffffffffffffffff166117f2565b15611684578373ffffffffffffffffffffffffffffffffffffffff1663150b7a02611553610c00565b8786866040518563ffffffff1660e01b815260040161157594939291906129f5565b6020604051808303816000875af19250505080156115b157506040513d601f19601f820116820180604052508101906115ae9190612a56565b60015b611634573d80600081146115e1576040519150601f19603f3d011682016040523d82523d6000602084013e6115e6565b606091505b5060008151141561162c576040517f08c379a000000000000000000000000000000000000000000000000000000000815260040161162390612784565b60405180910390fd5b805181602001fd5b63150b7a0260e01b7bffffffffffffffffffffffffffffffffffffffffffffffffffffffff1916817bffffffffffffffffffffffffffffffffffffffffffffffffffffffff191614915050611689565b600190505b949350505050565b606060008214156116d9576040518060400160405280600181526020017f300000000000000000000000000000000000000000000000000000000000000081525090506117ed565b600082905060005b6000821461170b5780806116f490612a83565b915050600a826117049190612afb565b91506116e1565b60008167ffffffffffffffff81111561172757611726611c8d565b5b6040519080825280601f01601f1916602001820160405280156117595781602001600182028036833780820191505090505b5090505b600085146117e657600182611772919061261c565b9150600a856117819190612b2c565b603061178d9190612650565b60f81b8183815181106117a3576117a2612b5d565b5b60200101907effffffffffffffffffffffffffffffffffffffffffffffffffffffffffffff1916908160001a905350600a856117df9190612afb565b945061175d565b8093505050505b919050565b6000808273ffffffffffffffffffffffffffffffffffffffff163b119050919050565b82805461182190611fa7565b90600052602060002090601f016020900481019282611843576000855561188a565b82601f1061185c57805160ff191683800117855561188a565b8280016001018555821561188a579182015b8281111561188957825182559160200191906001019061186e565b5b509050611897919061189b565b5090565b5b808211156118b457600081600090555060010161189c565b5090565b6000604051905090565b600080fd5b600080fd5b60007fffffffff0000000000000000000000000000000000000000000000000000000082169050919050565b611901816118cc565b811461190c57600080fd5b50565b60008135905061191e816118f8565b92915050565b60006020828403121561193a576119396118c2565b5b60006119488482850161190f565b91505092915050565b60008115159050919050565b61196681611951565b82525050565b6000602082019050611981600083018461195d565b92915050565b600081519050919050565b600082825260208201905092915050565b60005b838110156119c15780820151818401526020810190506119a6565b838111156119d0576000848401525b50505050565b6000601f19601f8301169050919050565b60006119f282611987565b6119fc8185611992565b9350611a0c8185602086016119a3565b611a15816119d6565b840191505092915050565b60006020820190508181036000830152611a3a81846119e7565b905092915050565b6000819050919050565b611a5581611a42565b8114611a6057600080fd5b50565b600081359050611a7281611a4c565b92915050565b600060208284031215611a8e57611a8d6118c2565b5b6000611a9c84828501611a63565b91505092915050565b600073ffffffffffffffffffffffffffffffffffffffff82169050919050565b6000611ad082611aa5565b9050919050565b611ae081611ac5565b82525050565b6000602082019050611afb6000830184611ad7565b92915050565b611b0a81611ac5565b8114611b1557600080fd5b50565b600081359050611b2781611b01565b92915050565b60008060408385031215611b4457611b436118c2565b5b6000611b5285828601611b18565b9250506020611b6385828601611a63565b9150509250929050565b600080600060608486031215611b8657611b856118c2565b5b6000611b9486828701611b18565b9350506020611ba586828701611b18565b9250506040611bb686828701611a63565b9150509250925092565b600060208284031215611bd657611bd56118c2565b5b6000611be484828501611b18565b91505092915050565b611bf681611a42565b82525050565b6000602082019050611c116000830184611bed565b92915050565b611c2081611951565b8114611c2b57600080fd5b50565b600081359050611c3d81611c17565b92915050565b60008060408385031215611c5a57611c596118c2565b5b6000611c6885828601611b18565b9250506020611c7985828601611c2e565b9150509250929050565b600080fd5b600080fd5b7f4e487b7100000000000000000000000000000000000000000000000000000000600052604160045260246000fd5b611cc5826119d6565b810181811067ffffffffffffffff82111715611ce457611ce3611c8d565b5b80604052505050565b6000611cf76118b8565b9050611d038282611cbc565b919050565b600067ffffffffffffffff821115611d2357611d22611c8d565b5b611d2c826119d6565b9050602081019050919050565b82818337600083830152505050565b6000611d5b611d5684611d08565b611ced565b905082815260208101848484011115611d7757611d76611c88565b5b611d82848285611d39565b509392505050565b600082601f830112611d9f57611d9e611c83565b5b8135611daf848260208601611d48565b91505092915050565b60008060008060808587031215611dd257611dd16118c2565b5b6000611de087828801611b18565b9450506020611df187828801611b18565b9350506040611e0287828801611a63565b925050606085013567ffffffffffffffff811115611e2357611e226118c7565b5b611e2f87828801611d8a565b91505092959194509250565b600067ffffffffffffffff821115611e5657611e55611c8d565b5b611e5f826119d6565b9050602081019050919050565b6000611e7f611e7a84611e3b565b611ced565b905082815260208101848484011115611e9b57611e9a611c88565b5b611ea6848285611d39565b509392505050565b600082601f830112611ec357611ec2611c83565b5b8135611ed3848260208601611e6c565b91505092915050565b60008060408385031215611ef357611ef26118c2565b5b6000611f0185828601611b18565b925050602083013567ffffffffffffffff811115611f2257611f216118c7565b5b611f2e85828601611eae565b9150509250929050565b60008060408385031215611f4f57611f4e6118c2565b5b6000611f5d85828601611b18565b9250506020611f6e85828601611b18565b9150509250929050565b7f4e487b7100000000000000000000000000000000000000000000000000000000600052602260045260246000fd5b60006002820490506001821680611fbf57607f821691505b60208210811415611fd357611fd2611f78565b5b50919050565b7f4552433732313a20617070726f76656420717565727920666f72206e6f6e657860008201527f697374656e7420746f6b656e0000000000000000000000000000000000000000602082015250565b6000612035602c83611992565b915061204082611fd9565b604082019050919050565b6000602082019050818103600083015261206481612028565b9050919050565b7f4552433732313a20617070726f76616c20746f2063757272656e74206f776e6560008201527f7200000000000000000000000000000000000000000000000000000000000000602082015250565b60006120c7602183611992565b91506120d28261206b565b604082019050919050565b600060208201905081810360008301526120f6816120ba565b9050919050565b7f4552433732313a20617070726f76652063616c6c6572206973206e6f74206f7760008201527f6e6572206e6f7220617070726f76656420666f7220616c6c0000000000000000602082015250565b6000612159603883611992565b9150612164826120fd565b604082019050919050565b600060208201905081810360008301526121888161214c565b9050919050565b7f4552433732313a207472616e736665722063616c6c6572206973206e6f74206f60008201527f776e6572206e6f7220617070726f766564000000000000000000000000000000602082015250565b60006121eb603183611992565b91506121f68261218f565b604082019050919050565b6000602082019050818103600083015261221a816121de565b9050919050565b7f4552433732313a206f776e657220717565727920666f72206e6f6e657869737460008201527f656e7420746f6b656e0000000000000000000000000000000000000000000000602082015250565b600061227d602983611992565b915061228882612221565b604082019050919050565b600060208201905081810360008301526122ac81612270565b9050919050565b7f4552433732313a2062616c616e636520717565727920666f7220746865207a6560008201527f726f206164647265737300000000000000000000000000000000000000000000602082015250565b600061230f602a83611992565b915061231a826122b3565b604082019050919050565b6000602082019050818103600083015261233e81612302565b9050919050565b7f45524337323155524953746f726167653a2055524920717565727920666f722060008201527f6e6f6e6578697374656e7420746f6b656e000000000000000000000000000000602082015250565b60006123a1603183611992565b91506123ac82612345565b604082019050919050565b600060208201905081810360008301526123d081612394565b9050919050565b600081905092915050565b60006123ed82611987565b6123f781856123d7565b93506124078185602086016119a3565b80840191505092915050565b600061241f82856123e2565b915061242b82846123e2565b91508190509392505050565b7f4552433732313a206f70657261746f7220717565727920666f72206e6f6e657860008201527f697374656e7420746f6b656e0000000000000000000000000000000000000000602082015250565b6000612493602c83611992565b915061249e82612437565b604082019050919050565b600060208201905081810360008301526124c281612486565b9050919050565b7f4552433732313a207472616e736665722066726f6d20696e636f72726563742060008201527f6f776e6572000000000000000000000000000000000000000000000000000000602082015250565b6000612525602583611992565b9150612530826124c9565b604082019050919050565b6000602082019050818103600083015261255481612518565b9050919050565b7f4552433732313a207472616e7366657220746f20746865207a65726f2061646460008201527f7265737300000000000000000000000000000000000000000000000000000000602082015250565b60006125b7602483611992565b91506125c28261255b565b604082019050919050565b600060208201905081810360008301526125e6816125aa565b9050919050565b7f4e487b7100000000000000000000000000000000000000000000000000000000600052601160045260246000fd5b600061262782611a42565b915061263283611a42565b925082821015612645576126446125ed565b5b828203905092915050565b600061265b82611a42565b915061266683611a42565b9250827fffffffffffffffffffffffffffffffffffffffffffffffffffffffffffffffff0382111561269b5761269a6125ed565b5b828201905092915050565b7f4552433732313a20617070726f766520746f2063616c6c657200000000000000600082015250565b60006126dc601983611992565b91506126e7826126a6565b602082019050919050565b6000602082019050818103600083015261270b816126cf565b9050919050565b7f4552433732313a207472616e7366657220746f206e6f6e20455243373231526560008201527f63656976657220696d706c656d656e7465720000000000000000000000000000602082015250565b600061276e603283611992565b915061277982612712565b604082019050919050565b6000602082019050818103600083015261279d81612761565b9050919050565b7f4552433732314d657461646174613a2055524920717565727920666f72206e6f60008201527f6e6578697374656e7420746f6b656e0000000000000000000000000000000000602082015250565b6000612800602f83611992565b915061280b826127a4565b604082019050919050565b6000602082019050818103600083015261282f816127f3565b9050919050565b7f4552433732313a206d696e7420746f20746865207a65726f2061646472657373600082015250565b600061286c602083611992565b915061287782612836565b602082019050919050565b6000602082019050818103600083015261289b8161285f565b9050919050565b7f4552433732313a20746f6b656e20616c7265616479206d696e74656400000000600082015250565b60006128d8601c83611992565b91506128e3826128a2565b602082019050919050565b60006020820190508181036000830152612907816128cb565b9050919050565b7f45524337323155524953746f726167653a2055524920736574206f66206e6f6e60008201527f6578697374656e7420746f6b656e000000000000000000000000000000000000602082015250565b600061296a602e83611992565b91506129758261290e565b604082019050919050565b600060208201905081810360008301526129998161295d565b9050919050565b600081519050919050565b600082825260208201905092915050565b60006129c7826129a0565b6129d181856129ab565b93506129e18185602086016119a3565b6129ea816119d6565b840191505092915050565b6000608082019050612a0a6000830187611ad7565b612a176020830186611ad7565b612a246040830185611bed565b8181036060830152612a3681846129bc565b905095945050505050565b600081519050612a50816118f8565b92915050565b600060208284031215612a6c57612a6b6118c2565b5b6000612a7a84828501612a41565b91505092915050565b6000612a8e82611a42565b91507fffffffffffffffffffffffffffffffffffffffffffffffffffffffffffffffff821415612ac157612ac06125ed565b5b600182019050919050565b7f4e487b7100000000000000000000000000000000000000000000000000000000600052601260045260246000fd5b6000612b0682611a42565b9150612b1183611a42565b925082612b2157612b20612acc565b5b828204905092915050565b6000612b3782611a42565b9150612b4283611a42565b925082612b5257612b51612acc565b5b828206905092915050565b7f4e487b7100000000000000000000000000000000000000000000000000000000600052603260045260246000fdfea2646970667358221220b15181b635029509f227028aa3bf2825a97f0e5426fdca1784e87d57747c04a664736f6c634300080c0033",
  "immutableReferences": {},
  "source": "// contracts/GameItem.sol\r\n// SPDX-License-Identifier: MIT\r\npragma solidity ^0.8.0;\r\n\r\nimport \"@openzeppelin/contracts/token/ERC721/ERC721.sol\";\r\nimport \"@openzeppelin/contracts/token/ERC721/extensions/ERC721URIStorage.sol\";\r\nimport \"@openzeppelin/contracts/utils/Counters.sol\";\r\n\r\ncontract LendHandNFT is ERC721URIStorage {\r\n    using Counters for Counters.Counter;\r\n    Counters.Counter private _tokenIds;\r\n\r\n    constructor() ERC721(\"GameItem\", \"ITM\") {}\r\n\r\n    function awardItem(address player, string memory tokenURI)\r\n        public\r\n        returns (uint256)\r\n    {\r\n        _tokenIds.increment();\r\n\r\n        uint256 newItemId = _tokenIds.current();\r\n        _mint(player, newItemId);\r\n        _setTokenURI(newItemId, tokenURI);\r\n\r\n        return newItemId;\r\n    }\r\n}\r\n",
  "sourcePath": "D:\\Archeel\\LOC4.0_TheCodingAvengers\\nfts\\contracts\\LendHandNFT.sol",
  "compiler": {
    "name": "solc",
    "version": "0.8.12+commit.f00d7308.Emscripten.clang"
  },
  "schemaVersion": "3.4.3",
  "updatedAt": "2022-03-12T22:38:12.010Z",
  "networkType": "ethereum",
  "devdoc": {
    "kind": "dev",
    "methods": {
      "approve(address,uint256)": {
        "details": "See {IERC721-approve}."
      },
      "balanceOf(address)": {
        "details": "See {IERC721-balanceOf}."
      },
      "getApproved(uint256)": {
        "details": "See {IERC721-getApproved}."
      },
      "isApprovedForAll(address,address)": {
        "details": "See {IERC721-isApprovedForAll}."
      },
      "name()": {
        "details": "See {IERC721Metadata-name}."
      },
      "ownerOf(uint256)": {
        "details": "See {IERC721-ownerOf}."
      },
      "safeTransferFrom(address,address,uint256)": {
        "details": "See {IERC721-safeTransferFrom}."
      },
      "safeTransferFrom(address,address,uint256,bytes)": {
        "details": "See {IERC721-safeTransferFrom}."
      },
      "setApprovalForAll(address,bool)": {
        "details": "See {IERC721-setApprovalForAll}."
      },
      "supportsInterface(bytes4)": {
        "details": "See {IERC165-supportsInterface}."
      },
      "symbol()": {
        "details": "See {IERC721Metadata-symbol}."
      },
      "tokenURI(uint256)": {
        "details": "See {IERC721Metadata-tokenURI}."
      },
      "transferFrom(address,address,uint256)": {
        "details": "See {IERC721-transferFrom}."
      }
    },
    "version": 1
  },
  "userdoc": {
    "kind": "user",
    "methods": {},
    "version": 1
  }
}